:020000041000EA
:10000000002008205D0100101B0100101D010010E0
:100010001101001011010010110100101101001058
:100020001901001019010010190100101F01001022
:10003000110100101901001021010010230100100E
:100040001101001011010010110100101101001028
:100050001101001011010010110100101101001018
:100060001101001011010010110100101101001008
:1000700011010010110100101101001011010010F8
:1000800011010010110100101101001011010010E8
:1000900011010010110100101101001011010010D8
:1000A00011010010110100101101001011010010C8
:1000B00011010010110100101101001011010010B8
:1000C00011010010110100101101001011010010A8
:1000D0001101001011010010110100101101001098
:1000E0001101001011010010110100101101001088
:1000F0001101001011010010110100101101001078
:100100001101001011010010110100101101001067
:10011000EFF30580103800BE00BE00BE00BE00BE7A
:1001200000BE00BEF2EB8871903D0010C03D001093
:10013000A001001090A31AE7D3DEFFFF42012110B7
:10014000FF010000C4490000793512AB4FF00000F8
:100150001E49086006C881F3088810474FF05040D8
:10016000006810B14FF00000F2E70DA40ECC00299A
:1001700002D000F012F8F9E71549164A002000E015
:1001800001C19142FCD11449884714498847144958
:10019000884700BEFDE701C901C29A42FBD3704700
:1001A000C03D0010100100204C0E0020FC4A001041
:1001B0000000082000000820FC4A00100010082061
:1001C00000100820000000007047000008ED00E06B
:1001D0004C0E0020701900206918001075020010E4
:1001E00061180010F8B500BF0348044B834202D0E9
:1001F000034B03B1184770474C0E00204C0E0020F3
:1002000000000000064B0749C91A891048BF013198
:10021000491003D0044B0BB101481847704700BF89
:100220004C0E00204C0E00200000000010B5064CC3
:10023000237843B9FFF7D8FF044B13B10448AFF359
:1002400000800123237010BDD00F002000000000AB
:100250003C3B001008B5044B1BB104490448AFF304
:100260000080BDE80840CDE700000000D40F00206A
:100270003C3B001038B501F0F3FB0021084602F0CA
:1002800009FE0E4D0E4C4FF0FF30002101F094FF9F
:10029000002002F0C7FC60B140222946002002F095
:1002A000CBFC03220020214602F0D0FC002002F00B
:1002B000D9FC012000F046FFE5E700BF201900202F
:1002C0003C3B001000487047CC3C00100048704791
:1002D000AC3C001038B548B940F209434FF4417EB8
:1002E0001A4D6B801948A5F800E038BD032825D8C1
:1002F000174B164D53F82040204603F059FBC0B26F
:100300001F28844628BF4FF01F0C0CF1010E5FFA26
:100310008EFE4FEA4E0E4EF4407E0028E2D02A4672
:100320000023601E013310F8011FDBB29C4522F848
:10033000021FF7D80548A5F800E038BD40F2023E9C
:10034000024D0248A5F800E038BD00BFD8110020DA
:100350009C3C001010B44FF480740C4B53F82020D8
:1003600003EB8003C00082F0400200F1804003F5FF
:10037000805C02F0C00200F5203003F54053CCF859
:10038000002041601C605DF8044B7047048003400E
:100390000FB400B583B0049C074801F0A9FB3CB141
:1003A00005A92046019101F041FA044801F0A0FBA3
:1003B000012001F053FA00BF683B0010783B0010A9
:1003C00070B58646EFF3108572B6124CD4E8CF6F45
:1003D0000120002EFAD1C4E8460F002EF6D1BFF35B
:1003E0005F8F4FF0010CC80801F007030CFA03F30C
:1003F0001EF800C01CEA030608D14CEA030C0EF8F4
:1004000000C0C4E88F6F85F3108870BD1046FFF7F9
:10041000BFFF00BF23120020F8B5EFF3108572B6BE
:10042000234CD4E8CF7F0126002FFAD1C4E8476FD0
:10043000002FF6D1BFF35F8F9A4227D80126D70845
:1004400010F807E002F0070C06FA0CFC1EEA0C0F8D
:1004500000EBD2070DD125E04FEAD20E10F80EE0E6
:1004600002F0070C06FA0CFC1EEA0C0F00EBD20798
:1004700018D001329342EFD24FF0FF300023C4E88E
:100480008F3F85F31088984207DBF8BD0023C4E84E
:100490008F3F85F310884FF0FF300029F5D0069884
:1004A000FFF776FF4EEA0C0E104687F800E0E5E70E
:1004B00023120020044A1078431CDBB2182B28BFFB
:1004C00010231370704700BFA80D002010B5054C15
:1004D00082B001461F23182200940348FFF79CFFB7
:1004E00002B010BD7C3B0010B41400204FF0E0229D
:1004F000936843F000539360704700BF0021044BA2
:1005000003F12002C3E88F1F01339342FAD17047F1
:10051000181200204FF0E0234FF08032C3F800247F
:10052000C3F80424C3F80824C3F80C24C3F8102427
:10053000C3F81424C3F81824C3F81C24C3F82024D7
:10054000C3F82424C3F82824C3F82C24C3F8302487
:1005500062B67047012300F01F029340400941B189
:10056000800000F1604000F56140C0F88031036018
:100570007047024A203042F82030704700E100E026
:10058000F8B50D46EFF3108772B6124ED6E8CF2FAE
:100590000123002AFAD1C6E8423F002AF6D1BFF370
:1005A0005F8F0D4B00F110049B680C4A53F8243008
:1005B000934203D0994201D001F020F8064B9B688A
:1005C00043F82450BFF35F8F0023C6E88F3F87F3C3
:1005D0001088F8BD2112002000ED00E0110100108C
:1005E0002DE9F04F81468B46164683B0EFF310831A
:1005F00072B6DFF8D0A10093DAE8CF1F01230029FB
:10060000FAD1CAE8413F0029F6D1BFF35F8F664BAC
:1006100093F90040002CC0F2A080644D04EB440725
:1006200005EB870898F8061009F110091970604B5E
:10063000BF009B6853F829006300411B2F292FD965
:100640005C49884240F0A4801C445B4B02372F4435
:10065000043BDB1BC3F34A036FEAC3434FF421415E
:100660006FEAD34325F8241005EB840463804BF62E
:100670000153A380FF2348F00100E671C4F808B0DD
:10068000A3714B4B9B6843F82900BFF35F8F002396
:10069000CAE88F3F009B83F3108803B0BDE8F08F5A
:1006A00020F0010E9EF80710B1422ED84FF42143DE
:1006B000EB53414BB91C2944043B04375B1A2F44CC
:1006C000AEF104013D4CC91BC1F34A012143A8F816
:1006D0000410C3F34A033A492343A8F802304AF608
:1006E000AA2073465B1B5B415843000D88F80760E6
:1006F00088F80600C8F808B048F00100CEF80010ED
:10070000BFE7D179B1422ED996469EF906C00CEBCF
:100710004C02BCF1000F05EB8202F2DA4BF60151FC
:100720000EF10402A8F10407BF1AC7F34A076FEAE3
:10073000C7476FEAD7478EF8064003EB0408204C02
:1007400005EB8803AEF8047045F82840998083F8DB
:1007500006C0DE71C3F808B093E700F04FFF124BFC
:1007600093F9004059E7724632F8041F490514D442
:100770004915023102EB410101916FF00701C91BDC
:10078000019F491B3944C1F34A0141F46041C9E763
:10079000019300F033FF019B56E701F5FF1101F5CE
:1007A000FF511F31E4E700BF6F190020AC0D00209E
:1007B00000ED00E011010010DC0D002000E0FFFF63
:1007C00001488047211200202DE9F04F83B0EFF35C
:1007D000108A72B6744ED6E8CF2F0123002AFAD1C0
:1007E000C6E8423F002AF6D1BFF35F8F6F4B00F19E
:1007F00010089B686E4A53F8285095423FD08D42AE
:100800000C464AD06B4FEB1B2F2B38D801214FEAF7
:1008100050194FEA890909F1604909F5614900F069
:100820001F0301FA03F0D9F80030C9F8800000EA8C
:10083000030BBFF35F8FEFF30581C9B279B388452E
:1008400077D125F0010EDEF808C0644505D17CE0C3
:10085000D3F808C0644532D09E469EF9062002EBCC
:100860004203002A07EB8303F2DA644500F081803B
:10087000BBF1000F20D0C9F88001C9F800004B4B34
:100880009B6843F82850BFF35F8F0023C6E88F3F73
:100890008AF3108803B0BDE8F08F1546EFE725F026
:1008A000010EDEF808C06445D7D19EF906407346B4
:1008B000002C08DA154666E0C9F88000DFE793F9F6
:1008C0000640002C56DB04EB440C07EB8C0CDCF8E8
:1008D000082061009A609CF80720DA719CF90620D4
:1008E000002A9A715DDBBCF80420520504D502F59C
:1008F000FF1202F5FF521F32521502F1020C4FF0A7
:10090000040E0C2212FB04E202EB4C026FF0070C07
:100910003A44ACEB030C6244C2F34A0242F4604234
:100920009A80254B21441A7807EB81011C708A714B
:100930009EE7CDE9000100F061FEDDE9000125F050
:10094000010EDEF808C0644587D19EF90640734663
:10095000002CB8DA194A1A4CD21A083AC2F30A31F2
:100960006FEA01516FEA115144EA5202DA8099802C
:100970007EE773460029EDD1FF228EF806204BF664
:100980000152AEF804200C4C4AF6AA2294F800C09A
:100990001946C91B49414A43120D83F806C022700B
:1009A00066E74BF60152BBE72112002000ED00E0A4
:1009B00011010010AC0D00206F190020E60D002081
:1009C00000F8FFFFF0B5EFF30585EDB2EFF3108C03
:1009D00072B62649D1E8CF2F0123002AFAD1C1E807
:1009E000423F002AF6D1BFF35F8F214E40F0010E47
:1009F000B4684AF6AA2354F825701E4A0446A41A7D
:100A0000644163431B0D77455BB21BD092F90640EE
:100A10009C421CD092F912409C4223D092F91E4075
:100A20009C4221D092F92A409C4208BF03240FD057
:100A3000114A0024157813708571C1E88F4F8CF32B
:100A40001088F0BDB2680D4C42F82540F0E7002454
:100A500004EB440402EB8402FF2494714BF601542E
:100A60009480E5E70124F3E70224F1E72112002056
:100A700000ED00E0AC0D00206F1900201101001006
:100A8000014B0B44036070471812002070B5104CE6
:100A9000104DAC420ED2FF26236863B1FFF70AFD6A
:100AA00001462046FFF7ECFFA680BFF35F8F0834B6
:100AB000AC42F1D370BDFFF7FDFC01462046FFF7C5
:100AC000DFFF2671BFF35F8F0834AC42E4D370BD03
:100AD000440E00204C0E002010B50446FFF7EAFC3F
:100AE00001462046FFF7CCFFFF232371BFF35F8F42
:100AF00010BD00BF10B504460120FFF7E7FC034B13
:100B000003442360BFF35F8F10BD00BF18120020A5
:100B10000D4B1A68EFF3108172B6D2E8CFCF0120E7
:100B2000BCF1000FF9D1C2E84C0FBCF1000FF4D1B9
:100B3000BFF35F8F00221B68C3E88F2F81F31088FB
:100B400040BF002000217047601900200000000015
:100B50002DE9F04F2DED028B85B0EFF30583DBB26D
:100B6000103B9A0818BF01224FF0010103F0030067
:100B700018BFAF4DAF4B08BFAF4D00EB820253F82B
:100B8000226001FA00FB05F541539FEDA78B019010
:100B9000C3F804B02EE0B388180440F19280B37912
:100BA000002B40F0DC80B6F908100029C0F21D814E
:100BB000736901EB410103EBC103D3E90247B7F1CC
:100BC000FF3F08BFB4F1FF3F0DD0019B05EB830150
:100BD000AB6A0A69D21AE31A934203D32B6A13EA67
:100BE0000B0F00D10C61284600F032FBA042B94146
:100BF000C0F2FB80B6F90830C5F83CB0002B00937A
:100C0000C9DBD6F8149003EB430A284609EBCA0760
:100C1000D7E9024800F01CFBA04271EB0801BADBE7
:100C2000B8F1000FC0F2C380D7E90431834A934280
:100C300000F0ED807A88B6F9080092B242EA0040EE
:100C4000984702460B4652EA030100F0B080002BA1
:100C500080F2D180B4EB020E68EB030839F93A3028
:100C6000C7E902E8002B96DB716903EB430201EB55
:100C7000C202D2E90270BE4578EB000C4FEA430293
:100C800089DBB4462CF8083F0BE031F93230A4463A
:100C9000002B0DDB03EB430001EBC0005A00D0E951
:100CA0000270BE451A4478EB000001EBC204ECDA96
:100CB00029F83A30009BACF80030B38818043FF5AF
:100CC0006EAF3369EFF3108272B6D3E8CF0F012114
:100CD0000028FAD1C3E8401F0028F6D1BFF35F8F88
:100CE0004FF6FF74B0880023316900B2B480C1E8C8
:100CF0008F3F82F310889842FFF651AF0746A9460E
:100D0000746906F1080807EB470E04EBCE03D3E93C
:100D10000250B6F90830C446002B13DBB2460097E8
:100D200004E034F936309446002B09DB03EB43062C
:100D300004EBC602D2E90271BD4270EB0101F0DAA8
:100D40005646009FACF8007034F93E7024F83E30EF
:100D5000002FD8DAB3794D46002B3FF424AF00239F
:100D6000B371B6F9083006F10808591C3DD0194690
:100D7000776903E080465A1C3FF417AF03EB430248
:100D800007EBC200B0F802C01C461CF4004F9E46A0
:100D900037F93230EED08C4280ED028B05D0A8F8C6
:100DA0000030318927F8321034817146E3E739F891
:100DB0003A3033813369EFF3108272B6D3E8CF0F44
:100DC00001210028FAD1C3E8401F0028F6D1BFF363
:100DD0005F8F7388316929F83A30009B7380002354
:100DE000C1E88F3F82F31088D5E640BF05B0BDEC67
:100DF000028BBDE8F08F2846CDE9022300F028FAE7
:100E0000029A039B10EB020E43EB010826E708460B
:100E10000B69029198470028C9D00299D1E90023B3
:100E200011E700BFAFF30080FFFFFFFFFFFFFFFFF1
:100E300000800B40F818002000000B40510B001000
:100E40002DE9F84F364C25692DB1BDE8F84F0A2140
:100E50003448FFF715BEDFF8E4800321404600F078
:100E6000E5F90326C4F80C80FFF724FB4FF0504C43
:100E70002D4B267003442361DCF800300F21637092
:100E8000636961801D834FF00405A3F878504FF02B
:100E90000505A3F890504FF00605A3F8A8504FF0B1
:100EA00007050E214FF6FF7208274FF00A0EA3F830
:100EB000C0504FF001094FF00C0C4FF0020B4FF0F7
:100EC000090A0D204FF00B05A3F868111749A280FD
:100ED000A3F808E1A160A3F848B0A3F8F0A0A3F834
:100EE0002051A3F838C1A3F85001A3F83090A3F81B
:100EF0006060A3F8D8701A800D4B3046C8F8207097
:100F00000C49DC60FFF73CFB49463046FFF722FB0B
:100F1000094B0A211F640348BDE8F84FFFF7B0BD35
:100F2000F40D00206019002018120020FFFF1000AF
:100F3000F8180020510B001000200B4000000B405F
:100F40000146F0B50069EFF3108772B6D0E8CF5FC5
:100F50000124002DFAD1C0E8454F002DF6D1BFF392
:100F60005F8FB1F902E04C690EEB4E0CBEF1000F41
:100F70004FEACC0504EBCC0C3DDB605B00264880DF
:100F80000869C0E88F6F87F31088BCF80200CCE9CD
:100F900002230130C0F30E00012838BF0120059B59
:100FA000ACF80200CCF81030069B40EA0E40CCF8BA
:100FB00014300B69EFF3108272B6D3E8CFCF01275C
:100FC000BCF1000FF9D1C3E84C7FBCF1000FF4D1A4
:100FD000BFF35F8F8B886353A1F804E00B69C3E80C
:100FE0008F6F82F310880122CB68097803F50153D3
:100FF0008A405A60F0BD00230A69C2E88F3F87F338
:1010000010884FF0FF30F0BD03464089B0EB214F10
:1010100037DD58690A1402EB420210B500EBC2003A
:101020001C69EFF3108C72B6D4E8CFEF0122BEF149
:10103000000FF9D1C4E84E2FBEF1000FF4D1BFF379
:101040005F8F428889B292B28A4207D000221B6920
:10105000C3E88F2F8CF31088002010BD42F40042AB
:1010600042800121002218699971C0E88F2F8CF30A
:1010700010881C78DA68084602F50153A1405960CF
:1010800010BD0020704700BF2DE9F041861F41F1DF
:10109000FF35B04271EB050338BF002682B038BF80
:1010A000354604460F4600F0DBF8301A65EB0103C5
:1010B000012873F1000306DA2046394602B0BDE884
:1010C000F04100F009B900F0CBF8864265EB010170
:1010D00000290ADB0021174B3246009316482B46A5
:1010E0000191FFF72DFF0028E6DB4FF0000C1348BD
:1010F000134A436A9D4204D8816AB142DCD29D42C0
:10110000DAD11368EFF3108172B6D3E8CF8F5FF0B6
:10111000010EB8F1000FF8D1C3E848EFB8F1000FA5
:10112000F3D1BFF35F8F1368C3E88FCF81F31088CB
:1011300020BFDEE7110B0010F40D002000000B4073
:101140006019002010B5044600F08AF84FF47A7355
:101150004FF0FF3C6FF00042E4FB0301BDE810409C
:10116000844572EB01033CBF60461146FFF78CBF1C
:101170002DE9F04306460D4683B0EFF30584E4B253
:101180003CB1274B586AA8421CD2002003B0BDE8EE
:10119000F083244FD7F80C9097F80080484600F071
:1011A00057F808F1040859F828301B1A301A65EB73
:1011B0000101984271F1000111DB20BF184B586A00
:1011C000A842E2D39B6AB34203D3012003B0BDE837
:1011D000F083401B18BF012003B0BDE8F08300F08E
:1011E0003FF8864265EB01010029CADB0E4B384609
:1011F000CDE9003432462B46FFF7A2FE011EC0DDCA
:10120000074B5A6AAA4208D39B6AB34203D30548E4
:10121000FFF7FAFEB5E7AA42F9D120BFF7E700BF12
:1012200000000B40F40D0020110B001010B4054B12
:10123000054C064AA04214BF1846581C5DF8044BE2
:10124000FFF7BEB8B814002000800B40983B001098
:101250000346416A0A46986A596A8A42FAD1704737
:10126000034B596A0A46986A596A9142FAD1704703
:1012700000000B4010B4174A536A9C46946A536AA4
:101280006345FAD1001959414FF0000228BF0122ED
:101290000346CAB10F4B596A4B1C08BF0B4608D016
:1012A0004FF0FF310B460B48426A8A42FCD38A4218
:1012B00007D1084A02E0506A884202D1906A9842F7
:1012C000F9D35DF8044B7047024A526A9142EAD85A
:1012D000EDE700BF00000B40074A536A9942FCD873
:1012E000994207D1044B02E05A6A914202D19A6AAC
:1012F0008242F9D3704700BF00000B40F8B50546A5
:1013000006200E4600F0E4F8002842D0354A364860
:10131000954214BF4FF080624FF00062334B344966
:1013200002601A608C6832EA0404FBD12D4B4FF442
:101330008071EB1AB3FA83F32E4A5B09062022F878
:10134000131000F0C5F8C300B3FBF6F30133DA095C
:1013500020D1402601216962AA622F6BFB0722D4AB
:101360002B46002253F82C1F062003F580542260E0
:101370002F6300F0ADF840F2013103228000B0FB92
:10138000F6F0EB6A83F0700303F07E0323602963B9
:10139000AA64F8BD4FF6FE718A421BD922464FF669
:1013A000FF71154ED7E740F2013205F540531A633D
:1013B0006B6AAC6A062004EB831400F089F80F4BCB
:1013C000A402A3FB0023DB0A0021B4FBF3F0FFF728
:1013D00051FFC5E7C3F34503114603EB82161A46D6
:1013E000B9E700BF00800740002002400030024003
:1013F0000000024064190020C0FF3F00757B2B8F66
:1014000000EB400C4FEA8C0C0CF1804C0CF5803C4E
:10141000F0B51646DCF80420051FB2F5803F38BF52
:101420004FF48032EDB238BFCCF80420012D2AD918
:101430004FF40067254C0CF54052176054F82020FB
:10144000B2B9DCF80020012D82EA461202F0E00277
:101450000CF5805632602AD94FF4006144F82030F0
:101460004FF480330CF500521160CCF80430F0BD1D
:101470006769B7FBF2FE0EF1010E0EEB4E0EBEF1E8
:10148000030EFCD2DDE70129D2D103240CF5405232
:101490001460DCF80820D207FBD5DCF800200B4CE8
:1014A00082EA461202F0E0020CF580563260012218
:1014B000DCF800504D4005F00305356002FA01F1FB
:1014C000DCF808200A42FBD0C6E700BFBC140020AD
:1014D000014B53F820007047BC14002070B4039DEA
:1014E00004682D0345EA03451B4B002CB3FBF1F3C5
:1014F000B2FBF3F61FDB194A194B904214BF4FF4AD
:1015000080424FF40042174C1A6003F580531A6072
:10151000A36832EA0303FBD1212200F540530433D0
:10152000016086601A600268002AFCDA0822C56041
:101530001A6070BC7047036803F03F038B42DAD136
:101540008368C3F30B03B342D5D1C36803F4EE231E
:10155000AB42D0D1EDE700BF001BB70000800540D3
:101560000020024000000240012300EB4000800008
:1015700000F1804000F5841041600360704700BFB7
:101580000023DB8A002242E800F2520201D410213B
:1015900018470421184700BF034AD2F82838002B07
:1015A000FBD0BFF35F8F704700000E400021044B5B
:1015B000044ABFF35F8F43F8041B9342F9D170478D
:1015C0000C080E402C080E4010B44FF48D704FF4F0
:1015D0002A64064A064B07491460D06019605368B4
:1015E000002BFCDA5DF8044B704700BF008004401C
:1015F00000A0044000B0FA00704700BF08B50148E1
:10160000FEF7C6FEBC3B001038B5054C054DAC429C
:1016100004D254F8043B9847AC42FAD338BD00BF1B
:10162000F03A0010303B001010B40748074C084B4C
:10163000084A094904601A608B6832EA0303FBD147
:101640005DF8044B704700BF002002407F3BEFEF86
:1016500000300240F6FFF30300000240044BDB6C55
:10166000B3F5004F03D14FF48022024BDA64704788
:1016700000001150002011504FF0E022044BD2F82E
:10168000881D0B43C2F8883D10EE3004704700BF40
:10169000030330006FF06041044B054A1960936802
:1016A000DB4333F06043FAD1704700BF00300240A3
:1016B0000000024010B545F25320FFF761FFBDE87E
:1016C000104003460420184710B545F25320FFF799
:1016D00057FFBDE81040034601201847FEF70EBF34
:1016E00070B51449144C154D641AA610442E324698
:1016F00028BF44222846920002F0DEF8B4F5867F27
:1017000013D80F4AC6F1440112D02B19480803EB35
:10171000C000C3E9002208338342FAD1CB0704D5C5
:1017200021F00103334445F82320064B9D6070BD32
:101730004323F8E700000010100100100000002013
:101740001101001000ED00E0002370B52B4C82B0B9
:10175000C4F88430FFF738FF0122294BDA63636C49
:10176000012BFCD10321264A244B11639C6B012CD5
:10177000FCD10226052521460523224A224800964F
:10178000FFF7ACFE21462B46204A21480095FFF783
:10179000A5FE0022042031461E4BFFF731FE2146F4
:1017A000284600221C4BFFF72BFE00220820114682
:1017B0001A4BFFF725FE002209201146174BFFF7B1
:1017C0001FFE002206201146134BFFF719FE0022D0
:1017D000114B07201146FFF713FE0420FFF778FE98
:1017E00000240F4BA3FB0035AD0CE0B229460134B9
:1017F000FFF7BAFE062CF8D102B070BD0000014020
:1018000000300140002F685900000540008C8647D9
:1018100000800540001BB70080D1F008006CDC029E
:1018200083DE1B4300B9704700F020B910B5094BA7
:1018300084B01C684CB1034600914FF0FF3203A9FD
:101840000548A047012004B010BD00F051F9204622
:1018500004B010BDF01800202518001000BEFDE7F0
:1018600008B5FFF7FBFF00BF38B5064C064DFFF784
:10187000CBFEAC4204D254F8043B9847AC42FAD3B6
:1018800038BD00BF303B00103C3B001003680846E9
:1018900011461847437D2DE9F04781460F4616460D
:1018A000002B43D0002A3BDD037D00204D1E014666
:1018B00015F8012FDFF884800A2A01F101040ED007
:1018C000A6421CD02B782146A3F10D03B3FA83F373
:1018D00015F8012F5B090A2A01F10104F0D1002B50
:1018E000EED18142A1EB000138441BDC02214046CD
:1018F000D9F800309847A64208D02046E2E7864251
:1019000004DD311AD9F8003038449847374417F8C5
:10191000013CA3F10D03B3FA83F35B0989F814309A
:10192000BDE8F087D9F800309847DFE73846D9F8A6
:1019300000301146BDE8F047184700BF343D0010A5
:101940002DE9F04782B00D46924699460746FFF7CB
:1019500087FC4FF0FF366FF000442F4A821841F1A8
:101960000003964274EB03013CBF324623462B48EA
:1019700002F0B6F86B1C804603D1384602F018F826
:101980000546274B274E1C68274BB9F1000F18BF9F
:101990001E46B4B1BAF1000F1AD1DFF8909001E001
:1019A000246974B12368002BFAD0D9F800300BB148
:1019B0009C42F5D120462A463946B0472469002C7E
:1019C000F0D1B8F1000F1FD1284602B0BDE8F08772
:1019D0004FF00A0ADFF8549002E02469002CF0D09E
:1019E0002368002BF9D0D9F800300BB1A342F4D111
:1019F0002A4639462046B047012220460DF107010C
:101A00008DF807A0B047E8E7044802F05DF82846E3
:101A100002B0BDE8F08700BF40420F00440E002036
:101A2000E41400208D18001095180010EC1400200C
:101A30000A4A13684BB1834202D109E0984207D0A9
:101A400003F110021B69002BF8D101B1106070473F
:101A50000029FCD10369136001617047E414002080
:101A600008B500F033F9012008BD00BFF0B583B020
:101A700006468DF80700FFF7F3FB4FF0FF356FF0D8
:101A80000044174A821841F10003954274EB0301A8
:101A90003CBF23462A46134802F022F8124B074661
:101AA0001C689CB1114D01E024697CB12368002BB6
:101AB000FAD02B680BB19C42F6D1204601220DF1E1
:101AC0000701FFF7E7FE2469002CEFD117B9304674
:101AD00003B0F0BD034801F0F7FF304603B0F0BD9E
:101AE00040420F00440E0020E4140020EC140020BB
:101AF00038B5044601F05CFF012305461A4620462E
:101B00002946FFF71DFF084B1C682CB163682BB1F9
:101B100098472469002CF9D1284638BD2469002C47
:101B2000F4D1284638BD00BFE4140020B1F1000C08
:101B30001DDD0F4A0F4B126830B5D31AB3FA83F389
:101B40000D240D4D5B09411E35F913E08C4411F84D
:101B5000010F864506D093699B06FCD46145106051
:101B6000F5D130BD93699D06FCD41460F3E770474E
:101B7000681900200080074064190020224BB1F151
:101B8000000C10B41C682EDD034600201F4A591EAD
:101B900012689369DB0617D401309369DB06FCD425
:101BA0001368844501F8013FF3D14CB1502113462D
:101BB000916353F8342F02F0380203F580531A6012
:101BC00060465DF8044B70474CB150211346916359
:101BD00053F8342F02F0380203F580531A6078B1BD
:101BE0005DF8044B70475CB1084B50211A681346EE
:101BF000916353F8342F02F0380203F580531A60D2
:101C00006FF00200ECE700BFAC1400206819002060
:101C1000054B1B6833B10021044A0548126800686F
:101C200091631847704700BFAC140020681900206A
:101C3000B0140020024B1A6893691B07FCD470474C
:101C400068190020F8B51C4F1C4D3A681C4EAA427A
:101C500014BF212522250446D6F800C018B1BCF1D6
:101C6000000F10D0F8BDBCF1000FFBD0014690630F
:101C70002846FEF76FFC28461249FEF7A5FD124BD9
:101C800034601C60F8BD0B460F4A0E493060284690
:101C90001360FEF775FC01212846FEF75BFC3A68ED
:101CA00050211346916353F8342F02F0380203F5A4
:101CB00080531A60F8BD00BF6819002000800740FB
:101CC000AC140020111C0010B014002010B50E49F7
:101CD0000E4C0F480F4A104B007821600020022163
:101CE00012781B78FEF736FB02210120FEF732FB4B
:101CF0004FF4E1312068FFF701FBBDE810400121FE
:101D00000648FFF795BE00BF000007406819002095
:101D1000BC3D0010B83D0010B43D00100C0E00207A
:101D200070B500F033F90C2340261B4CFF22A3674B
:101D30000E201A49FEF754FC194B32460021184672
:101D400001F068FD0346002101258020154A5884D2
:101D50009A60843A5D701E831E875960C2F88410B1
:101D6000C2F8801002F58072DA60DA62803A83F895
:101D7000211083F83B1059629A624FF0005601F02F
:101D8000A7FE4FF480320849084B25642846E664D4
:101D9000C4F89010DA6470BD00001150590300209F
:101DA000F01400208400105010D0010000201150C9
:101DB00001210E20FEF7CEBB00220248114600F0A2
:101DC00005B900BF10150020044B197021B14FF464
:101DD0000032034BC3F89020704700BF6D190020FC
:101DE000002011500B785B0602D14B78052B00D0F8
:101DF00070474B88014ADBB21360704700001150F6
:101E0000CB782DE9F04103F0030EBEF1010FC3F3CF
:101E100001005DD0002791F802C0354C0CF07F0323
:101E20005E00898806EBDC1204EB42124FEADC15F7
:101E3000D076C1F30A0185F00100507082F802C02B
:101E40001183D77018B2DA008DBB2A48043204EB34
:101E5000831C02EB0008CCF8088017508BB3264A8D
:101E6000DB001A44CCF80420244B3F311A6821F0DF
:101E70003F01BEF1020F08BF490011441960204B19
:101E8000771904EB47179942FA602CD82E4404EBDB
:101E90004613D97E82F0A04282F480125B6842EA47
:101EA000816242F000421A600120BDE8F081DFF853
:101EB00044C004EB83186244C8F828204CF8307002
:101EC0004BB900220F4904EB4513D9605A60EBE788
:101ED0000020BDE8F081DB0003F1A04303F580138F
:101EE000C8F82430C0E7FFF789FBFA68CEE700BFE7
:101EF000F01400208000105004001050F41800204E
:101F0000FF0F10500001105001F0E2BD8C4608B5E3
:101F1000114607481A460CF07F034FEADC1C0CEB15
:101F2000430C00EB4C1000F051F8012008BD00BF3D
:101F3000F0140020CB0911F07F0103D1064AC3F150
:101F400002009066054803EB41034FF40062002154
:101F500000EB431001F0C0BD00201150F014002030
:101F600011F07F0300D17047002210B4C809064C5D
:101F700000EB430004EB40136FF4006118465DF87A
:101F8000044BDA7001F0A8BDF01400204FF080522D
:101F900009480A4908B50A4B02600A609968C943B2
:101FA00011F08051FAD14FF48052064801F032FC12
:101FB0000922054B5A6708BD00200240003002404C
:101FC00000000240000010500000115000234FF0AC
:101FD000010C10B580F81AC08282C38201610446E8
:101FE00001F066FD20B14FF40032074BC3F890209A
:101FF000204601F079FD10B10123237710BD204662
:10200000BDE8104001F05CBD002011500020704779
:102010002DE9F0414FF000081C4D044642462B7854
:102020001B4F1C4E0DE0336813EB421325D0DB68C9
:102030002046984708F101082B785FFA88F293420E
:1020400006D39342A2EB0303EDD807EB4313EEE76D
:10205000114C54220021204601F0DCFB4FF0FF33ED
:10206000251D6360C5E90133EB6004F114002022F3
:10207000BDE8F041FF2101F0CDBB4FF0E023D3F8E4
:10208000F03DDB0700D500BEBDE8F0816C190020F3
:10209000543D00108011002044120020704700BF02
:1020A000704700BF00207047002070470020704735
:1020B000704700BF704700BF704700BF704700BF48
:1020C0002DE9F047DFF8E89099F80030FF2B02D0B7
:1020D0000120BDE8F0870D4600293DD000215422A3
:1020E0000646294801F096FB0022284C284B204642
:1020F0001A70FEF7F1FC274B27481C60274CFEF7AF
:10210000F9FC204601F052FB254A264B1460264C70
:102110005BB32046AFF30080244B227818604FF069
:10212000000ADFF890805346204F0DE03A6812EB2A
:10213000431311D05B687BB198470AF1010A2278FA
:102140005FFA8AF39A4212D39342EFD39B1A08EBB9
:1021500043135B68002BEFD14FF0E023D3F8F03D41
:10216000DB0700D500BE0020B3E72278D7E7294679
:10217000304689F80060FFF7D3FD0028ECD03046E8
:10218000FFF716FEA4E700BF441200203C12002017
:102190006E19002098120020380E0020240E002016
:1021A0009C120020000000006C190020801100200B
:1021B000400E0020543D00102DE9F04FDFF8ACA296
:1021C0008BB09AF80030FF2B00F0E880A04CA14DB6
:1021D000DFF894B2A04E27687B69EFF3108272B6E5
:1021E000D3E8CF0F01210028FAD1C3E8401F00280F
:1021F000F6D1BFF35F8FBA61384607A901F024F921
:1022000000237A69C2E88F3FBB6983F310880028F6
:1022100000F0C4809DF81D30013B072B00F26A835B
:10222000DFE803F0A1AB8F9788350A04089B002BE9
:10223000D1D009989847CEE79DF8201001F07F078C
:1022400005EB470000EBD11090F8343023F0010388
:1022500080F8343090F8343023F0040380F83430C0
:10226000002F00F09E80027D9BF800309A4280F0A3
:102270008D807A4B1B6813EB421300F088809F69B6
:102280009DF82120099B9DF81C00B847A3E73378EF
:10229000002B7CD03378013BDBB23370337803F012
:1022A000FF00002B97D16B4F9DF81C903B7843F0BB
:1022B00001033B7097F8343060F3000387F8343043
:1022C00097F8343060F3820387F8343097F835306C
:1022D00060F3000387F8353097F8353060F38203F8
:1022E00087F8353000F00CFC9DF8203003F06002D8
:1022F000602A66D0402A76D003F01F03012B00F03D
:10230000B780022B7BD0002B5BD1202A00F0DE812E
:10231000002A56D19DF82130092B52D8DFE813F05E
:10232000A50197015100B60151008A015F015100DA
:102330005401E7002B78D9077FF54DAFFFF7BEFEBC
:1023400049E7EB78DA077FF546AF0898FFF7A8FE74
:1023500041E72B78D8077FF53EAF2878C0F3C0005F
:10236000FFF7AAFE37E79DF81C00FFF751FE00F0CB
:10237000BDFB9DF82030AB702DE79DF81C00FFF7EA
:1023800047FE00F0B3FBFFF795FE24E711D04FF0B6
:10239000E023D3F8F03DDC0700D500BE0BB0BDE86C
:1023A000F08F099B9DF821209DF81C0000F0BCFBDC
:1023B00011E72B4B63E7FDF789FF0246002840F049
:1023C0007C814FF0E023D3F8F03DDF0700D500BE5D
:1023D0009DF81C000021FFF7ADFD80219DF81C0039
:1023E000FFF7A8FDF7E61F4800F08AFB01214846E9
:1023F00008AAFFF70BFE00287FF4EDAEE8E79DF892
:10240000241011F0700FDCD1174B01F07F08187801
:1024100007EB480303EBD11393F814C04FEA4808C5
:1024200084454FEAD11350D340F06D810C480190A0
:10243000002A00F06C81019F786900F061FB0121A6
:1024400048467B6908AA984700287FF4C4AEBFE7D6
:102450009C120020441200206E19002080110020E0
:10246000543D00100D2000106C190020400E00207B
:102470009DF824300F2BABD8B04A3B441B7912781F
:1024800093422ED3A4D1AE4F786900F039FB0121DD
:1024900048467B6908AA984700287FF49CAE9DF8BF
:1024A000203013F0600793D19DF821300A3B012BB7
:1024B0008ED800F025FB9DF821300A2B00F0FB811F
:1024C000484608A900F0A2FA85E69E48006800EB9D
:1024D0004C100190002A00F01A8100283FF478AFD8
:1024E000A9E7984A176817EB4317CDD170E77B78B7
:1024F0009DF82280984500F05A817B78002B40F0AF
:10250000C68187F80180B8F1000F00F04E8108F114
:10251000FF30C0B2FDF7DAFE0146002800F064810A
:102520004378022B40F06081C2793878C2F34013BF
:102530001B01C2F3801220F0300043EA4213034330
:102540003B704B88CDF80C90CB1801930931019B5F
:102550008B4240F2AB814B780B2B00F0B6814FF0F1
:10256000010C042B40F040814FF00009019BC8464C
:102570005B1A9BB20293714BCDF810C01B781BE025
:10258000704B1B6813EB481300F02E81029A1B69F5
:1025900003980591984708280246059909F1010911
:1025A00003D9029B834280F00781644B5FFA89F86C
:1025B0001B784345C0F018814345A8EB0303DFD8DF
:1025C0005F4A02EB4313E1E77B7848468DF81A3007
:1025D0000DF11A02012308A900F032FAFBE5BDF85B
:1025E0002200030A013B020AC0B20E2B3FF6F0AEF6
:1025F00001A151F823F000BF19280010A9260010EE
:1026000055280010D1230010D123001037280010C6
:10261000A9260010D1230010D1230010D1230010CF
:10262000D1230010D1230010D1230010D12300109A
:102630000B28001008A800F069FA48469DF82210FF
:10264000FFF7BAFB3B7843F002033B70C3E5BDF8EC
:102650002230012B7FF4BCAE3B78484623F00803C0
:1026600008A93B7000F0D2F9B5E548463B789A08D6
:1026700002F00202C3F340131343ADF81A300DF118
:102680001A02022308A900F0DBF9A4E5BDF8223004
:10269000012B7FF49DAE3B78484643F0080308A920
:1026A0003B7000F0B3F996E5022A3FF484AEFFF7E1
:1026B000FDFC024600283FF48BAE4846538808A92B
:1026C00000F0BEF900287FF486AD81E69DF8243045
:1026D0000F2B3FF67DAE194A3B441B79127893428B
:1026E00027D2184A176817EB43173FF471AE786981
:1026F00000F006FA012148467B6908AA984700289D
:102700007FF469AD64E6002A7FF462AE01929DF821
:1027100021C00CF0FD02012A16D0BCF1000F7FF49D
:1027200050AEB844434493F834304846C3F34003B2
:10273000A3E77FF44DAE024FD9E700BF6C1900202C
:10274000543D001080110020BDF82220BAB9BCF120
:10275000010F9AF8000000F085800293FFF7EAFB72
:10276000029BB844434493F8342042F0020283F8B9
:10277000342093F8342042F0010283F83420019B86
:10278000002B3FF428AD586900F0BAF9019B0121F4
:102790005B6908AA48469847002000F0B1F997F80D
:1027A0003530DB073FF517AD8AE6FFF783FC484677
:1027B00008A900F02BF90EE5DDF810C0BCF1000F00
:1027C00000F08980887800EB0C03DBB203E09842CC
:1027D0008CF804807FD007EB000C9CF804E00130FB
:1027E000BEF1FF0FC0B2F2D04FF0E023D3F8F03DBE
:1027F000D90700D500BE4FF0E023D3F8F03DDA074B
:1028000000D500BE00237B70E2E5FFF74BFC0246DB
:1028100000287FF452AFDBE5FDF754FD02460028A7
:102820003FF4CFAD4846122308A900F009F900286B
:102830007FF4D1ACCCE5FFF737FC024600283FF42B
:10284000C7AD4846137808A900F0FAF800287FF4CD
:10285000C2ACBDE5BDF82410FDF73CFD02460028E2
:10286000EFD1B5E5CDE90232FFF77AFB029BB84420
:10287000434493F83410039A62F3410183F834100F
:1028800093F8341062F3000183F8341077E70021E5
:102890004846FFF799FA4846FFF736FBBB784846AB
:1028A0000193FFF7B5FB019BBB702AE6DDF80C90A6
:1028B000FFF7FEFB7BE74846012308A90DF11A024A
:1028C0008DF81A7000F0BCF885E40B7891F803C01D
:1028D00019444B7845E643460B480492029100F0B8
:1028E00081FB0A4B02991B78049A43451144BFF4BB
:1028F0002EAE79E74FF0E023D3F8F03DDB077FF50C
:102900006AAC00BE67E400BF581200206C190020BA
:1029100038B50E4B1D788B7813F0700F08D04FF040
:10292000E023D3F8F03DDB0700D500BE002038BD22
:10293000074B0C460846997800F022FB0028EED0A1
:1029400021462846BDE83840FFF75ABA400E00201D
:10295000441200200B46064A06481168DA09343250
:1029600003F07F0302EB4303184400F0C3BA00BF37
:1029700098120020441200200B46064A06481168AF
:10298000DA09343203F07F0302EB4303184400F00A
:10299000DBBA00BF981200204412002010B5194C79
:1029A00001F07F0E04EB4E0404EBD11494F834C014
:1029B00015481CF0010F04F13004007808D04FF0E6
:1029C000E023D3F8F03DDA0700D500BE002010BDAB
:1029D00094F804C04CF0010C84F804C0FFF796FA98
:1029E0000028F4D14FF0E021227960F30002227137
:1029F000227960F382022271D1F8F03DDB07E5D540
:102A0000E3E700BF44120020400E002030B50B4C1D
:102A10008C46A6460546086849680023AEE80300D0
:102A20009CF800102846C943C4E90233BDE8304091
:102A30001A4601F08001FFF7B1BF00BFC4110020AA
:102A40002DE9F041274F4FF00008BE468C46064660
:102A500008684968BA60AEE80300A7F80E8015461A
:102A6000BCF80620934228BF1346BB819AB11C468E
:102A70002BB3DDB197F90030402C28BF4024002B48
:102A800028DB414623463046174AFFF787FF68B1E7
:102A90000120BDE8F0819CF800101346C943304680
:102AA00001F08001FFF77AFF0028F1D14FF0E02319
:102AB000D3F8F03DDB0700D500BE0020E9E71A4659
:102AC000397801F0800123463046FFF767FF002880
:102AD000DED1EBE722462946034800F0EDFE8021D7
:102AE000014AF0E7C4110020841100200022034BAA
:102AF000C3E90022C3E902221A617047C411002011
:102B0000014B1861704700BFC411002030B4024669
:102B1000044C0025234600685168C4E9025530BCC6
:102B200003C37047C411002070B53C4CC90922781A
:102B30000646B1EBD21F1D4682B017D053B14FF0FD
:102B4000E023D3F8F03DDB0702D4002002B070BDD3
:102B500000BEFAE72146FFF745F923691BB122467B
:102B6000032130469847012002B070BD94F900302F
:102B7000A068002B05DB0028E7D02A46284900F092
:102B80009BFEE089A168E388284480B229448342FF
:102B9000E081A16016D03F2D14D9A28994F900409C
:102BA000131A9BB2402B28BF4023002C26DB9042F7
:102BB0004FF0000130D01A4A3046FFF7EFFE0028F0
:102BC000D1D1BCE7236923B102213046134A98478B
:102BD00058B121780023C94330461A4601F08001DC
:102BE000FFF7DCFE0028BED1A9E701463046FFF71B
:102BF000A1F980213046FFF79DF9B4E7904208D053
:102C00001A460748019300F057FE8021044A019BB1
:102C1000D2E780210022CFE70A46CDE7C411002089
:102C20008411002008B10020704708B5014800F069
:102C3000E9FB08BD5014002008B10020704713467E
:102C40000A46014900F04CBB48140020134608B165
:102C5000002070470A469BB2014900F089BA00BFC4
:102C6000E413002008B100207047014900F048BA81
:102C7000E413002070B5124C84B0CC220021204611
:102C800000F0C8FD402500230E4E04F18C021946C9
:102C9000CDE90265CDE9002504F168001A4600F08F
:102CA000CDF9002304F128012E4400910122194698
:102CB000CDE902650195201D00F0C0F904B070BD9A
:102CC000E01300206013002010B5054C204600F0F2
:102CD000E1F9A4F1640000F0DDF9012010BD00BFAE
:102CE0004814002038B5074C0025204600F8705BDA
:102CF00000F05CFD04F10C0000F058FD84F8695010
:102D0000657138BDE01300202DE9F84F4B79FF2B9A
:102D100002D00020BDE8F88F394D0E4695F8693095
:102D20000C78002BF5D16F79002FF2D18B780C4401
:102D30002B700B79002B3ED0804604EB020B05F183
:102D4000700A05F168096378052B09D0A34502D8FC
:102D500031E05C452FD223781C446378052BF8D1F1
:102D6000A34528D921464046FFF7D2FD00283ED092
:102D7000A378DB0923D1504600F018FDA37895F81D
:102D8000681085F86930A3884046C3F30A03A3F5A9
:102D90000073B3FA83F35B0963F3410185F86810AC
:102DA000494600F035FA10B32378317901371C44D5
:102DB000FBB29942C7D8A11B88B2BDE8F88F114871
:102DC00000F0F4FCA37895F804C06B71A3880E4959
:102DD000C3F30A03A3F50073B3FA83F35B0963F348
:102DE000410C002085F804C000F08AF9DCE74FF0C0
:102DF000E023D3F8F03DDB078BD500BE89E700BFA9
:102E0000E0130020EC130020E413002070B51B4CED
:102E1000064694F869C01D468C45627904D08A4202
:102E200018BF002017D070BDB4F8743063B9144BCC
:102E300023B100201349AAB2AFF3008030461249F3
:102E400000F0E6F9012070BDE16EAAB204F1700055
:102E500000F000FCEBE70D4B1BB10020A9B2AFF373
:102E6000008030460A4900F04BF90028EAD12A4692
:102E70003046074900F010F9E4E700BFE0130020F6
:102E80000000000060130020481400200000000033
:102E9000E413002010B582B0B9B101280CD80B782A
:102EA00053B1134C012B235402D0012002B010BDAA
:102EB000FFF706F90028F8D14FF0E023D3F8F03DF2
:102EC000DB0700D500BE0020F0E70124084601A979
:102ED000ADF80440FFF7F4F838B94FF0E023D3F829
:102EE000F03DDA07E2D500BEE0E7014B1C70DDE7FC
:102EF00038120020F8B5037813F001041AD10378D2
:102F000005465A07C3F3800701D52046F8BD0E4693
:102F10004FF0FF31304600F0CFFD2B7813F0010465
:102F20000BD12B785B0709D42B78012443F00403E1
:102F30002B7003E000242046F8BD3C46304600F0EC
:102F4000C3FD2046F8BD00BF70B50C4605464FF0E6
:102F5000FF31204600F0B0FD2B78C3F380065B07FD
:102F600008D52B7813F0010311BF00262A7863F3EC
:102F700082022A70204600F0A7FD304670BD00BFD7
:102F8000C378828803F003000228C2F30A021FD02C
:102F9000032803D001280AD000207047022914BF5B
:102FA00040234FF48063934209D3012070470229E4
:102FB00040F2FF3308BF4FF480639342F6D24FF0E4
:102FC000E023D3F8F03DDB07E6D500BE00207047D4
:102FD000022902D0402AE8D9F1E7B2F5007FE4D017
:102FE000EDE700BF0A44914226D291F801C0BCF13E
:102FF000050F05D091F800C061448A42F5D87047AA
:1030000000B591F802C00CF07F0E00EB4E0E4FEAB7
:10301000DC1C0EF80C3091F800C061448A4209D9DA
:1030200091F801C0BCF1050FEBD091F800C06144EC
:103030008A42F5D85DF804FB704700BF2DE9F041E6
:103040008E4682B0009390F800C0089EBDF82470B0
:103050006EF3000C04461546012331463A4600F84B
:1030600008CBBDF82C8000F09DF906B13FB90120D6
:103070000A9BA4F80280636002B0BDE8F08104F10D
:103080001C063046FDF728FD0DB135460026C4E983
:103090000556ECE701207047F8B50746084640F2B0
:1030A000FF13154610F8082B0C4612F0020F0CBF48
:1030B0003F261E4600F0A6F928B925B12E4202D1BE
:1030C0002378DA0701D50020F8BD38466178FFF78C
:1030D00041FC0028F7D0237813F0010307D04FF00C
:1030E000E023D3F8F03DDB07EDD500BEEBE71A4651
:1030F00038466178FFF752FC0028F0D0F8BD00BFD9
:1031000070B501F10805064628460C4600F07AF92C
:1031100010B12378D80701D5002070BD3046617802
:10312000FFF718FC0028F7D028466288616800F095
:10313000D5F92378054648B1D9070ED54FF0E023DD
:10314000D3F8F03DDA07E7D500BEE5E7DB07E3D4C7
:1031500030466178FFF710FCDEE7034662683046D0
:103160006178FFF71BFC0028E8D0284670BD00BF3F
:103170002DE9F04163B11D468B8906460C46904609
:1031800053B90B78D90703D46178FFF7E3FBF8B99B
:1031900000252846BDE8F08101F1080738461146B0
:1031A000AAB200F057FA2378054613F0020F38460A
:1031B0000CBF40274FF4007700F024F9B84202D248
:1031C000A389BB42E5D221463046FFF799FFE0E7ED
:1031D000638841469D4228BF1D4660682A4600F02C
:1031E0006BFB2378DA0707D54FF0E023D3F8F03DE7
:1031F000DB07CDD500BECBE761783DB162683046D4
:10320000ABB2FFF7CBFB0028C3D1EDE72A46F6E7C8
:103210008A892DE9F0410B780C4605468AB9DF070B
:1032200025D44978FFF796FB08B322786388D60740
:103230003FD54FF0E023D3F8F03DDA0717D500BEB5
:1032400015E003F0020301F10808002B40460CBF13
:1032500040274FF400774FF6C07618BF4FF47E46F4
:1032600000F0E0F8874202D82378D80702D5002082
:10327000BDE8F08128466178FFF76CFB0028F6D0A6
:10328000404600F0CFF887421FD823786288D907DC
:10329000CFD43040904228BF104661780646E0B156
:1032A000626833462846FFF779FB0028C1D03046D4
:1032B000DEE761783BB162682846FFF76FFB0028C4
:1032C000B7D06088D4E71A46F6E72378DB07CED478
:1032D00028466178FFF750FBC9E70246E1E700BFE7
:1032E0002DE9F8430C4604F10807114606469AB248
:1032F000384600F0F3F8A38905462BB92378DB079D
:103300003CD52846BDE8F8832378384603F002030D
:10331000002B4FF6C0730BBF4FF040094FF40079FC
:1033200098464FF47E4800F07DF84845E9D323786D
:10333000D807E6D430466178FFF70CFB0028E0D0D0
:10334000384600F06FF88145237824D8D907628881
:103350000CD400EA0803934228BF13466178C3B136
:1033600062683046FFF71AFB0028CAD14FF0E0230D
:10337000D3F8F03DDA07C4D500BEC2E73046617825
:10338000FFF7E8FA0028BCD022786388D707E5D594
:10339000ECE71A46E5E7DB07B3D430466178FFF780
:1033A000EBFAAEE72DE9F041B2F5004F9DF8188039
:1033B00024D80446C06817460E461D4618B14FF083
:1033C000FF3100F079FB206918B14FF0FF3100F0B8
:1033D00073FB0022C5F30E03E06843EAC833628141
:1033E0002660A780E380228108B100F06DFB206990
:1033F00008B100F069FB0120BDE8F0810020BDE8C4
:10340000F08100BF038942899BB292B280889342C7
:1034100036BFC2EB40029B1A9B189BB2984228BF52
:1034200018467047038942899BB2808892B29342C2
:1034300036BFC2EB40029B1A9B189BB2984286BFD4
:10344000C01A80B20020704738B5044600690D46A6
:1034500018B14FF0FF3100F02FFB2189638989B249
:103460009BB2A288994236BFC3EB4200C81A4018EB
:1034700080B250B3824209D291422CBF891A891876
:103480008BB29A42638103D89B1A9BB29A42FBD9B2
:10349000E2882168C2F30E0202FB0311284600F005
:1034A0000BFA6189012589B24B1C9BB29942A28813
:1034B0000ED9002302FA05F15B1A9BB220696381E1
:1034C00008B100F001FB284638BD054663899BB270
:1034D000B3EB420F4FEA4201F0DBEDE72DE9F04795
:1034E000064600698846914618B14FF0FF3100F05A
:1034F000E3FA338974899BB2A4B2B588A34236BF7C
:10350000C4EB45071F1BFF18BFB2002F4AD0BD42B6
:1035100040D3B94528BFB946A5421FFA89F703D859
:10352000641BA4B2A542FBD9B6F806A02B1B3168D8
:103530009BB2CAF30E029F42924602FB041123D9AA
:1035400013FB02F31FFA83F94A4640467D1B00F045
:10355000B3F9621912FB0AF2316808EB090092B262
:1035600000F0AAF97289B58892B2D3199BB29A4237
:103570001AD96A009B1A9BB23069738108B100F0B6
:10358000A3FA3846BDE8F087404607FB02F200F098
:1035900093F9E7E7AB422CBF5B1B5B199CB22F464C
:1035A0007481B6E773899BB2B3EB450F4FEA4502CE
:1035B000E2DBDFE7F8B50446C0680E4618B14FF00D
:1035C000FF3100F079FA2589238961899BB289B29C
:1035D000A2888B4236BFC1EB42015B1A5B189BB2DB
:1035E0009A42ADB208D8E779FF0905D1E06808B181
:1035F00000F06AFA3846F8BD954219D32B469B1A5B
:103600009BB29342FBD2E2882068C2F30E0202FB17
:103610000300314600F050F96B1C9BB29D42A2881A
:1036200012D9002351005B1A9BB201272381DDE7E9
:10363000E2882068C2F30E0205FB0200314600F06A
:103640003BF90135A288ABB2B3EB420F4FEA42011E
:10365000EBDBE8E72DE9F04F164683B0002A4CD0AB
:103660000546C068884618B14FF0FF3100F024FAD3
:10367000EA792F896989D209AB88BFB289B240D172
:103680008F4236BFC1EB4301791AC91989B29942F9
:1036900041D2591A89B28E4228BF0E46B5F806A00B
:1036A00007EB0609A6EB030BCAF30E0A1FFA89F90A
:1036B0001FFA8BFB9F423C4603D3E41AA4B29C4200
:1036C000FBD21B1B28689BB2B3420AFB04004BD3FE
:1036D00041460AFB06F200F0EFF8AA884F454FEA90
:1036E000420302D8B9EB420F03DBA9EB03031FFA35
:1036F00083F9E868A5F8089088B9304603B0BDE8BA
:10370000F08FB5F806A09E42CAF30E0A0DD3002B27
:103710003FD11E4600E00026E8680028EDD000F00A
:10372000D3F9304603B0BDE8F08F8F4236BFC1EB0E
:1037300043027A1AD21992B258003244A6EB030B14
:1037400082421FFA8BFB0ADB01EB03091FFA89F99E
:10375000A9EB0607BFB2B94218D9381A87B206EBEF
:1037600007091FFA89F9A5E713FB0AF35C4414FB68
:103770000AF49AB24146019200F09EF8019A286834
:1037800008EB0201A2B200F097F8A6E7B84291DC7C
:10379000E3E7F61A01EB03090AFB06880F461E460B
:1037A0004FF0000B1FFA89F984E700BF10B50446FB
:1037B000C06818B14FF0FF3100F07EF9206918B1F0
:1037C0004FF0FF3100F078F90023E0686381238136
:1037D00008B100F079F9206908B100F075F901200D
:1037E00010BD00BF00B545F247308BB0FDF7C8FEF5
:1037F00001220346092101A89847DDE90332044963
:1038000012BA1BBAC1E900230BB05DF804FB00BF7C
:103810001819002070B5860747D0541E002A3ED0E4
:10382000CAB2034601E0013C39D303F8012B9D07DE
:10383000F9D1032C2CD9CDB20F2C05EB052505EBC6
:10384000054535D9A4F1100C03F1100E1A462CF0E1
:103850000F064FEA1C1CB644C2E90055C2E90255E6
:1038600010327245F8D10CF1010214F00C0F04F083
:103870000F0C03EB021213D0ACF1040323F003038B
:103880000433134442F8045B9342FBD10CF003046D
:103890002CB1C9B21C4403F8011BA342FBD170BD7B
:1038A00064461346002CF4D1F9E703461446C0E7FA
:1038B0001A46A446E0E700BF844641EA000313F03D
:1038C000030349D1403A23D30B6803604B6843603C
:1038D0008B688360CB68C3600B6903614B6943618C
:1038E0008B698361CB69C3610B6A03624B6A436274
:1038F0008B6A8362CB6AC3620B6B03634B6B43635C
:103900008B6B8363CB6BC36340304031403ADBD277
:1039100030320BD30B6803604B6843608B68836065
:10392000CB68C36010301031103AF3D20C3205D39B
:1039300051F8043B40F8043B043AF9D2043208D071
:10394000D2071CBF11F8013B00F8013B01D30B88E3
:1039500003806046704700BF082A13D38B07B1D09D
:1039600010F00303AED0C3F10403D21ADB071CBF6F
:1039700011F8013B00F8013BA4D331F8023B20F8D9
:10398000023B9FE7043AD9D3013A11F8013B00F812
:10399000013BF9D20B7803704B7843708B788370BE
:1039A00060467047002301461A46184600F042B8A8
:1039B00020F0030110F00300C0F1000051F8043BB7
:1039C00000F1040C4FEACC0C6FF000021CBF22FA8D
:1039D0000CF213434FF0010C4CEA0C2C4CEA0C4C4B
:1039E000A3EB0C0222EA030212EACC1204BF51F844
:1039F000043B0430F4D0C2F1000102EA0102B2FA41
:103A000082F2C2F11F0200EBD200704738B5074DB9
:103A1000074C2C1BA41005D0013C55F8043D9847D9
:103A2000002CF9D1BDE8384000F040B83C3B001014
:103A30003C3B001070B4164D2C681CB365681F2DFC
:103A400023DC38B96B1C00200235636044F8251074
:103A500070BC704704EB850C0228CCF888204FF02E
:103A60000102D4F8886102FA05F246EA0206C4F8B7
:103A70008861CCF80831E5D1D4F88C311343C4F80F
:103A80008C31DFE7034C2C60D8E74FF0FF30DFE7E5
:103A90007C110020EC0F0020024B13B10248FFF70D
:103AA00081BF7047000000000D3A0010F8B500BF5C
:103AB0005FF800F01D0A00205FF800F0ED01002023
:103AC0005FF800F0BD0A00205FF800F0250200203A
:103AD0005FF800F0610200205FF800F0790A002032
:103AE0005FF800F0810100205FF800F0450A002037
:103AF000B5160010291600105D16001049170010A9
:103B000095160010AD150010DD1600109915001067
:103B10008D0A0010E1160010410E0010F91500107A
:103B2000C916001079160010ED04001015050010DC
:0C3B3000993A0010E53700105502001013
:103B3C0041434B0054505345204C6162000000003F
:103B4C005069636F205379734D6F6E2044657669AD
:103B5C006365000030303032000000000A2A2A2A47
:103B6C002050414E4943202A2A2A0A000A0000000C
:103B7C004E6F207370696E6C6F636B73206172652E
:103B8C0020617661696C61626C65000048617264E9
:103B9C007761726520616C61726D20256420616CA7
:103BAC00726561647920636C61696D656400000005
:103BBC0048617264206173736572740052656C6540
:103BCC0061736500626F6F74325F773235713038B4
:103BDC0030000000322E322E300000007069636F0E
:103BEC00320000007069636F5F7379736D6F6E5F85
:103BFC0064657669636500004A616E202035203269
:103C0C00303236005541525420737464696E000092
:103C1C0055415254207374646F757400554152545D
:103C2C0020737464696E202F207374646F75740034
:103C3C00556E68616E646C65642049525120307811
:103C4C0025780A0065702025303258207761732062
:103C5C00616C726561647920617661696C61626C1A
:103C6C006500000043616E277420636F6E74696E8B
:103C7C0075652078666572206F6E20696E6163745D
:103C8C006976652065702025303258004C4544001B
:103C9C0000000000403B00104C3B0010603B00104B
:103CAC000902200001010080320904000002FF001B
:103CBC0000000705010240000007058102400000DA
:103CCC001201000200000040FECA02500001010275
:103CDC000301000006005250D3F07542C83B00109F
:103CEC0006005250E182887FD03B001006005250F3
:103CFC00ABB36053E03B001006005250BBFF3CB628
:103D0C00E83B001006005250861C0302F03B0010EA
:103D1C00060052505422A29D043C00100500525043
:103D2C00DE65F468104B00100D0A000006005250BE
:103D3C0053B4F4A1283C00100800525012000000AB
:103D4C00080052509210000000000000752C00106A
:103D5C00C92C0010E52C0010092D00100D200010AE
:103D6C000D2E00100000000009005250000000024F
:0C3D7C00983C0010080052501210020089
:083D880030FBFF7F0100000089
:103D9000E03C0010EC3C0010F83C0010043D00102A
:103DA000103D00101C3D0010283D0010803D00100B
:103DB000743D00104C3D0010443D0010383D001093
:103DC0004FF050412DE9F0410027044616461D46AC
:103DD000D1F8008009E02368C3E88F7F8CF3108856
:103DE0003046294600F030FEF0B92168EFF3108C20
:103DF00072B6D1E8CF2F0123002AFAD1C1E8423FA1
:103E0000002AF6D1BFF35F8F94F904E0BEF1000FF2
:103E1000E1DA0023226884F80480C2E88F3F8CF343
:103E200010880120BDE8F0810020BDE8F08100BFCE
:103E300030B501460468EFF3108C72B6D4E8CFEFCA
:103E40000125BEF1000FF9D1C4E84E5FBEF1000FAD
:103E5000F4D1BFF35F8F90F90440002C11DB0021F7
:103E60000568C5E88F1F8CF310884FF0504C9CF903
:103E700000C0A44501D1084630BDBDE83040FFF781
:103E80009FBF4FF05040006800230A680871C2E8E5
:103E90008F3F8CF31088012030BD00BF70B5054600
:103EA0000C4600F0C5FD02460B464FF47A704FF009
:103EB000FF3E6FF0004CE4FB002396457CEB0301D2
:103EC00038BF72462846BDE8704038BF6346FFF7EA
:103ED00077BF00BF0368EFF3108272B6D3E8CFCF8D
:103EE0000121BCF1000FF9D1C3E84C1FBCF1000F58
:103EF000F4D1BFF35F8F4FF0FF0C0023016880F80F
:103F000004C0C1E88F3F82F3108840BF704700BFF4
:103F1000002108B5134B4FF4707299601248D960B4
:103F2000196159619961D961196259629962D962BD
:103F3000196359639963D963196459649964D9649D
:103F4000196559659965D965196659669966D9667D
:103F5000196759679967D96700F066FD034B044AF2
:103F60001A6008BD0000105030150020F418002021
:103F7000800110502DE9F04F204B85B09E6D0EB39F
:103F8000002401251E4F01E0202C1BD006EA05036A
:103F9000621C2146AA46D4B26D00002BF4D0022345
:103FA00004F001084FEA510913FB098B154B07EB8D
:103FB0004B1B5846C3F858A000F00AFC28B936EA53
:103FC0000A06E1D105B0BDE8F08F4FF4E062ADF82C
:103FD0000420002208EB490307EB43138DF8092066
:103FE0009A78DB8A01A801218DF80820039300F05C
:103FF0000DFC584600F092FBE1E700BF00001150B5
:10400000F014002000301150F0B5B24B85B0D3F859
:10401000985015F4003674D0AF4BB04C996A94F8B0
:104020003B30AF4A022B116000F0F980002694F873
:104030007B30022B00F0D48194F8BB30022B00F0CF
:10404000C58194F8FB30022B00F0B68194F83B3127
:10405000022B00F0A68194F87B31022B00F09681B0
:1040600094F8BB31022B00F0868194F8FB31022BCF
:1040700000F0768194F83B32022B00F0658194F8D1
:104080007B32022B00F0548194F8BB32022B00F0FB
:10409000438194F8FB32022B00F0328194F83B33D9
:1040A000022B00F00A8194F87B33022B00F0C980C8
:1040B00094F8BB33022B00F0EC8094F8FB33022B16
:1040C00000F0D6803EB9874B1B7823B94FF40032FD
:1040D000854BC3F890204FF440727E4B01219B6CBE
:1040E00001A8C3F30A03ADF80420029300F08EFB8D
:1040F000EA064FF400367D4C07D5FFF73BFF264616
:1041000003E0EA064FF01004F7D4EB0332D5734C0A
:1041100046F48036A37E9BB10221754B6D4A196629
:10412000536E9F07FCD54FF4405200216B4800F0BE
:10413000FBFA6A4800F0F2FA02226B4B5A661A66E2
:10414000012394F83A20E370FAB901234FF4C061D7
:10415000684A84F82330ADF8041092E8030004AAFA
:1041600002E90300194601A800F050FB4FF40032A9
:104170005D4B1A65E9041DD46A0432D42B043FD484
:10418000AE4240F0A58105B0F0BD594A1366A2F5D4
:104190000052536ED807FCD54FF4405200215648C8
:1041A00000F0C2FA544800F0B9FA01224E4B5A66A8
:1041B0001A66CAE70024474B46F480561C60FFF796
:1041C000A7FE4FF48073012101A8ADF804308DF8EB
:1041D000084000F01BFB4FF40022434B1A656A04B1
:1041E000CCD54FF48063012101A8ADF8043000F074
:1041F0000DFB10223C4B46F480461A652B04BFD5BC
:104200004FF4A063012101A8ADF8043000F0FEFADC
:104210004FF40062344B46F400461A65B0E794F858
:104220003A60002E3FF403AF94F83C30002B3FF48B
:10423000FEAE002304F1200084F83C3000F096FA32
:10424000F5E694F87A73002F3FF432AF94F87C339C
:10425000002B40F0368194F8BB33022B23D194F825
:10426000BA33DBB994F8FB33022B7FF434AF3E460C
:1042700094F8FA33002B3FF425AF94F8FC33002B6D
:104280003FF429AF00231D4884F8FC3300F06EFA98
:1042900021E794F8BA33002B3FF40FAF94F8BC3306
:1042A000002B40F0A78094F8FB33022B7FF413AF70
:1042B00094F8FA33002BE0D10DE794F83A73002F0D
:1042C0003FF4F1AE94F83C33002B40F0F2803E46D0
:1042D000E9E600BF0000115000000B40F014002080
:1042E000E81400206D190020003011501000020069
:1042F000002011500000105010150020D018002090
:1043000094F8FA72002F3FF4C9AE94F8FC32002BF7
:1043100040F0C7803E46C1E694F8BA72002F3FF4E1
:10432000B8AE94F8BC32002B40F0B3803E46B0E605
:1043300094F87A72002F3FF4A7AE94F87C32002BE9
:1043400040F09F803E469FE694F83A72002F3FF47B
:1043500096AE94F83C32002B40F08B803E468EE6C1
:1043600094F8FA71002F3FF485AE94F8FC31002BDD
:1043700077D13E467EE694F8BA71002F3FF475AED1
:1043800094F8BC31002B64D13E466EE694F87A7105
:10439000002F3FF465AE94F87C31002B51D13E469E
:1043A0005EE694F83A71002F3FF455AE94F83C3134
:1043B000002B3ED13E464EE694F8FA70002F3FF4B3
:1043C00045AE94F8FC3063BB3E463FE694F8BA70C5
:1043D000002F3FF436AE94F8BC30D3B93E4630E6F9
:1043E00094F87A70002F3FF427AE94F87C3043B9EC
:1043F0003E4621E60023394884F8BC3300F0B6F984
:1044000051E70023364884F87C303E4600F0AEF990
:1044100012E60023334884F8BC303E4600F0A6F98B
:104420000FE60023304884F8FC303E4600F09EF949
:104430000CE600232D4884F83C313E4600F096F906
:1044400009E600232A4884F87C313E4600F08EF9C4
:1044500006E60023274884F8BC313E4600F086F982
:1044600003E60023244884F8FC313E4600F07EF940
:1044700000E60023214884F83C323E4600F076F9FD
:10448000FDE500231E4884F87C323E4600F06EF9BC
:10449000FAE500231B4884F8BC323E4600F066F97A
:1044A000F7E50023184884F8FC323E4600F05EF938
:1044B000F4E50023154884F83C333E4600F056F9F5
:1044C000F1E50023124884F87C3300F04FF9C2E68E
:1044D000104886EA050100F0B3FA00BF90180020EA
:1044E0005015002090150020D01500201016002037
:1044F0005016002090160020D01600201017002023
:104500005017002090170020D0170020101800200E
:10451000501800203C3C00102DE9F043828A048BA7
:1045200003469442C07828BF1446051E18BF0125D3
:1045300080F00100121B5E78D87092B244F4806063
:104540009A8240EA453006BBDD6804F1FF3805EB8E
:10455000811C1D69ACB1B8F1050F05F1010203D949
:10456000ACEB0207022F17D80CF1FF3C254400E00A
:10457000013212F8016CAA420CF8016FF8D11D69E2
:104580009A8A25441D6140F400400AB940F48040F5
:1045900001B10004BDE8F0832F46E6463246261FEF
:1045A000B608013657F8049B013296424EF8049B38
:1045B000F8D8B4EB860FA8EB860205EB860E0CEB61
:1045C0008607DCD015F826500CF82650002AD6D0E5
:1045D0009EF80150012A7D70D1D09EF80220BA7059
:1045E0001D699A8ACDE700BF83680246186801B149
:1045F000000C5378C0F3090013B3F0B5D2E90354AB
:104600008F0105EB8113461E78B1052E04D90137C1
:104610003D44651B022D1CD8611E1D1813F8014B6B
:104620009D4201F8014FF9D11469D38A044403442F
:10463000D382138B1461834284BF00239382F0BD25
:10464000D38A0344D382138B834284BF0023938293
:1046500070479E4625460021A0F1040C4FEA9C0CB1
:104660000CF1010C5EF8047B0131614545F8047BD7
:10467000F8D3B0EB8C0FA6EB8C0603EB8C0504EBA8
:104680008C01D1D013F82C3004F82C30002ECBD074
:104690006B78012E4B70C7D0AB788B701469C4E770
:1046A00010B50446836800211B68FFF79DFF63680F
:1046B0001B685B0002D5238B834200D010BD2046CF
:1046C000BDE810400121FFF78FBF00BF084B1B6CF6
:1046D00013F0020302D18278D20901D10020704781
:1046E000C07EA0F10200B0FA80F04009704700BF20
:1046F0000000115008B5FFF7E9FF50B1054A064B1D
:10470000906A1B68A0F54870C01AC6288CBF0020AC
:10471000012008BD00000B40E81400200023C0E980
:1047200004338376704700BF10B5836809B11C68F5
:10473000214082B1114352050DD51A6854050CD49D
:10474000084A21F480641C60126C920703D40C2385
:10475000033BFDD28368196010BD8178024800F0E8
:104760006FF900BF00001150503C001030B5436895
:10477000002183B004461D68FFF7CEFE134B40F4C2
:1047800080521B6C13F0020FA3780ED05B060ED084
:1047900025F0A04545F000550021204663681D60C6
:1047A00003B0BDE83040FFF7BFBFDB09F0D0A38AFC
:1047B000002BEDD0012120460192FFF7ADFE019ABA
:1047C00025F00055024345F0A045E5E700001150F3
:1047D00038B5857E044695B1FFF762FFA38A0BB911
:1047E000284638BD2046FFF785FF20B101232377F7
:1047F0000025284638BD2046FFF7B8FFF8E7817846
:10480000014800F01DF900BF703C00102DE9F04395
:1048100043780446023B0D4685B0042B13D8DFE8ED
:1048200003F00348677042000021784B1A7822F0A9
:1048300001021A701A7822F002021A7059701A785E
:1048400061F382021A70724B1E687369EFF3108273
:1048500072B6D3E8CF0F01210028FAD1C3E8401F78
:104860000028F6D1BFF35F8FB2612146304600F0D9
:10487000E3F800237269C2E88F3FB36983F31088BD
:1048800048B94FF0E023D3F8F03DDB0708D500BE70
:1048900005B0BDE8F0832A466178207800F0D8F8AA
:1048A00005B0BDE8F0835B4A13780133DBB21370C7
:1048B000C9E74FF00009584E4B463178DFF8608168
:1048C000564F0FE03A6812EB431305D0DB691BB17A
:1048D000616820789847317809F101095FFA89F316
:1048E0008B4217D89942EDD85B1A08EB4313EDE7DA
:1048F000464B1A78D707D3D51A7842F004021A70BB
:10490000A1E7424B1A78D607CAD51A7822F00402DA
:104910001A7098E73D4E3378580737D4F378DA07A2
:10492000BED5032300273A4A2178166862688DF8BD
:1049300004108DF805307369CDF80670CDF80A7053
:10494000ADF80E700292EFF3108272B6D3E8CF0F7B
:1049500001210028FAD1C3E8401F0028F6D1BFF397
:104960005F8F3046B26101A900F066F87369C3E851
:104970008F7FB36983F31088002882D02A469DF880
:1049800005109DF8040000F063F889E733784FF0D4
:10499000000823F00403337005231D4A8DF8053009
:1049A00017682278ADF80E808DF804207B69CDF869
:1049B0000680CDF80A80EFF3108272B6D3E8CF0FED
:1049C00001210028FAD1C3E8401F0028F6D1BFF327
:1049D0005F8F3846BA6101A900F02EF87B69C3E801
:1049E0008F8FBB6983F3108838B94FF0E023D3F879
:1049F000F03DD90792D500BE90E72A469DF80510F4
:104A00009DF8040000F024F888E700BF441200205D
:104A10009C1200206E1900206C19002080110020CB
:104A2000543D0010000000005FF800F01538001041
:104A30005FF800F0611200105FF800F0B53500106B
:104A40005FF800F0910300105FF800F071110010A2
:104A50005FF800F09D200010100000000000000032
:104A60000000010000000000000000000000020043
:104A70000000000000000000000003000000000033
:104A8000000000000000FF000000000001B54868C1
:104A900001318E460047704609380149884701BDFB
:104AA000C509001000000000000000000000000028
:104AB0000000000000000000500E00202D1B001020
:104AC000351C00107D1B0010451C0010000000006C
:104AD00000010000A012002010000C0000000000E7
:104AE00000000000000000000000000000000000C6
:0C4AF000FF0000000000000000000000BB
:104AFC00D3DEFFFFFE010000FF0100003CB6FFFF0C
:044B0C00793512AB3A
:040000051000014D99
:00000001FF
