:020000041000EA
:1000000000B5324B212058609868022188439860DF
:10001000D860186158612E4B002199600221596106
:100020000121F02299502B49196001219960352056
:1000300000F044F80222904214D00621196600F024
:1000400034F8196E01211966002018661A6600F04E
:100050002CF8196E196E196E052000F02FF8012189
:100060000842F9D1002199601B49196000215960AB
:100070001A491B48016001219960EB211966A021F2
:10008000196600F012F800219960164914480160C1
:100090000121996001BC002800D000471248134993
:1000A000086003C880F30888084703B5996A0420EC
:1000B0000142FBD001200142F8D103BD02B5186610
:1000C0001866FFF7F2FF186E186E02BD00000240BE
:1000D000000000180000070000035F00212200005C
:1000E000F4000018222000A00001001008ED00E03C
:1000F00000000000000000000000000074B24E7A12
:1001000000200420F7010010CB010010CD010010E9
:10011000C9010010C9010010C9010010C901001077
:10012000C9010010C9010010C9010010CF01001061
:10013000C9010010C9010010D1010010D301001045
:10014000C1010010C1010010C1010010C101001067
:10015000C1010010C1010010C1010010C101001057
:10016000C1010010C1010010C1010010C101001047
:10017000C1010010C1010010C1010010C101001037
:10018000C1010010C1010010C1010010C101001027
:10019000C1010010C1010010C1010010C101001017
:1001A000C1010010C1010010C1010010C101001007
:1001B000C1010010C1010010C1010010C1010010F7
:1001C000EFF30580103800BE00BE00BE00BE00BECA
:1001D00000BE00BEF2EB88717C410010AC41001003
:1001E0003802001090A31AE71E481F49086006C88D
:1001F00081F3088810471D480068002801D019487D
:10020000F3E70DA40ECC002902D000F012F8F9E7B4
:100210001749184A002000E001C19142FCD116495B
:100220008847164988471649884700BEFDE701C937
:1002300001C29A42FBD37047AC410010C0000020BD
:10024000301000201C510010000004200000042089
:100250001C510010001004200010042000000000B9
:10026000704700000000000008ED00E0000000D032
:1002700030100020281E0020311C00102103001027
:10028000291C0010F8B5C0460448054B10B5834240
:1002900003D0044B002B00D0984710BD3010002035
:1002A000301000200000000006480749091A8B1092
:1002B000C90FC91810B5491003D0044B002B00D04A
:1002C000984710BD301000203010002000000000C2
:1002D00010B5074C2378002B09D1FFF7D5FF054B4C
:1002E000002B02D0044800E000BF0123237010BDA2
:1002F000B013002000000000883E0010054B10B530
:10030000002B03D00449054800E000BFFFF7CCFFF5
:1003100010BDC04600000000B4130020883E00104D
:1003200070B501F085FD0021002002F09DFF0E4D0B
:100330000E4C01200021404202F0F4F8002002F0AF
:1003400039FE00280CD040222900002002F03EFE99
:1003500003222100002002F049FE002002F056FE98
:10036000012000F0F3FEE4E7D01D0020883E0010DD
:10037000004870471840001000487047F83F0010D0
:1003800070B5002806D1C1261448154BB60043802D
:10039000068070BD03281ED8124B8000C558280067
:1003A00003F070FCC0B2041C1F2800D91F24C02613
:1003B000E4B2631CDBB25B00B6001E43002808D029
:1003C0000023094AE95C01331180D9B202328C4220
:1003D000F8D80248DCE7054E0048D9E7B8150020F8
:1003E00009040000E83F0010BA15002002030000D5
:1003F000094A83009A1810B514684022544080328C
:100400002240064CC000A44663441A60044B9C463C
:100410006044416010BDC04604C0014004D00140AA
:10042000004001408023DB051868000F7047C0467C
:100430000FB400B5084883B001F04CFD049B002BBD
:1004400007D005A91800019101F0D4FB034801F081
:1004500041FD012001F0E6FBB43E0010C43E001057
:1004600070B5EFF3108C72B60D4D2B68002BFCD0DD
:10047000BFF35F8F0724CB08C618C05C01230C4074
:10048000A3401C000440034207D118433070BFF35F
:100490005F8F2C608CF3108870BD1000FFF7C8FFD1
:1004A0002C0100D0F8B54746CE46884680B5EFF31C
:1004B000108C72B6214D2C68002CFCD0BFF35F8FDE
:1004C0009A422CD8D4080727055D06190124174045
:1004D000BC402C421FD007210127894609E0D408DF
:1004E000055D06194C4639001440A1400C00294214
:1004F00011D001329342F2D201204042BFF35F8F0C
:1005000000220E4B1A608CF3108800280FDBC0BC51
:10051000B946B046F8BD254310003570EEE7BFF38D
:100520005F8F00232B608CF31088012040424346EC
:10053000002BECD00898FFF77BFFC0462C0100D0C1
:10054000044A1078431CDBB2172B00D91023137018
:100550007047C046600F002010B5064B064C82B0B5
:100560000100009318221F232000FFF79BFF02B019
:1005700010BDC046C83E0010741900200021044B75
:10058000044ABFF35F8F02C39342FAD17047C0465B
:10059000000100D0800100D0054B064A1360064AD6
:1005A000136053609360D36013615361936170472C
:1005B0008080808000E400E004E400E01F23184015
:1005C0001E3B8340002905D0C021044A49005350F6
:1005D00013607047802201498B50FAE700E100E088
:1005E00070B50D00EFF3108672B60F4A1368002B3A
:1005F000FCD0BFF35F8F0D4B10309B6884001B59FC
:100600000B4A934203D09D4201D001F0BDF8074B45
:100610009B681D51BFF35F8FBFF35F8F0022024BBA
:100620001A6086F3108870BD240100D000ED00E050
:10063000C1010010F0B557464E46DE464546E0B5CE
:1006400085B0060000911700EFF3108B72B66A4A6E
:100650001368002BFCD0BFF35F8F0025674B5D57FD
:100660009A46002D00DAA9E06B00654C01935B19F6
:100670009B009846A146C1444B4652469B79103692
:100680001370604BB6009B6899590B1B2F2B33D905
:100690005D4B994200D0ACE0019B42469C465B4BCF
:1006A0006544AD0063535A4B0232A218043B9B1AB7
:1006B0001B05584A5B0D651913436B80564B01218E
:1006C000AB80FF23AB71009BEF71AB604B460B43DC
:1006D00019004C4B9B689951BFF35F8FBFF35F8F3D
:1006E0000022454B1A608BF3108805B0F0BCBB4666
:1006F000B246A946A046F0BD01200A008243D37944
:100700008C46BB4231D84546130044491B1B5B4114
:100710005943090D3D4B63533D4B02356519043B6D
:100720005B1B1B053B4D5B0D2B43AA464D466B8067
:100730000425AC465546E044131F44441B1B1B05CF
:100740005B0D1D434B46997100999D809960494608
:10075000DF71334B01431360BBE75800C0188000C2
:100760002018C179B9422FD902000623D356002B95
:10077000F3DA02932B4B61460393131D9A4604232D
:100780005B429C46E14450464B461B1A1B055B0DE1
:100790009C46204B957198466346404603439380A0
:1007A000019B5A199200039BA418A380029B1C4A28
:1007B000A371009B2260E771A3608AE700F0E4FF69
:1007C000002553465D574FE7908802934005131D5F
:1007D0009A46031561469C464046D444634604301D
:1007E0002018181AE0230005400D1B02184303903F
:1007F000C5E700F0C9FF4FE7240100D0241E002008
:10080000640F002000ED00E0C101001000A1FFFF17
:10081000940F002000E0FFFF01BDFFFFAAAA000027
:100820000148804701BD0000F0B5DE4657464E4600
:100830004546E0B50C0083B0EFF3108872B6634A0A
:100840001368002BFCD0BFF35F8F614B61499A683E
:10085000030010339F00D55900938D4243D0A54229
:1008600054D05D4EAA1B2F2A3DD85C4B9C461B687A
:100870009A4601231A0099468240534613401F228C
:1008800001934B46024093409A468022634650466D
:100890009850BFF35F8FEFF305839B46002B37D053
:1008A000009B5B4501D000F06FFF2A004B469A4346
:1008B0009068844208D177E04B005B189B00F318E6
:1008C0009868844236D01A00062151560029F3DA7E
:1008D000844255D0019B002B27D0C02251463F4B6C
:1008E0005200995019603A4B9B68DD51BFF35F8FFE
:1008F000BFF35F8F0022354B1A6088F3108803B076
:10090000F0BCBB46B246A946A046F0BD0D00EAE7E2
:100910002A004B469A4390688442D5D1062010564F
:10092000130000280ADA0D0032E0802351462B4ADA
:10093000D150D8E706201856002822DB42001118B3
:10094000890074188946A1689960E179D9710621F6
:1009500061569971002925DBA488F11A64052415D4
:100960004C440919E0240905490D240221439980CA
:1009700013181B4A9B001178F31899711070A9E79E
:1009800013005946002914D1FF3191711549918006
:1009900013490A789A71144A9B1B5B415A43120D02
:1009A0000A7097E71149E2E7062010561300002865
:1009B000C4DA0F4A0F49D21A083A5002400D0143D7
:1009C00099800D4952080A43DA8083E7240100D058
:1009D00000ED00E0C1010010640F002000E100E024
:1009E000241E002001BDFFFFAAAA000001BD0000D7
:1009F0009E0F002000F0FFFF00F8FFFF70B50124FC
:100A00000443EFF30581EFF3108C72B6214A1368AB
:100A1000002BFCD0BFF35F8F1F4B05001F4AED1A60
:100A20006D416A43120D1E4D8900AE6852B2765870
:100A3000A6421CD00621595691421CD0122159566B
:100A4000914222D01E215956914220D02A21595636
:100A50000324914210D0134B19781A708171BFF39F
:100A60005F8F00220B4B1A608CF3108870BDAB684F
:100A70000D4C5C50EFE700246100091989005B18F8
:100A8000FF21997109499980E5E70124F4E70224DF
:100A9000F2E7C046240100D0640F0020AAAA00009B
:100AA00000ED00E0241E0020C101001001BDFFFF89
:100AB000024B9C466144890001607047400000344D
:100AC00070B5114C114DAC420FD2FF262368002B9C
:100AD0000CD0FFF735FD01002000FFF7E9FFA680ED
:100AE000BFF35F8F0834AC42F0D370BDFFF728FD31
:100AF00001002000FFF7DCFF2671BFF35F8F083491
:100B0000AC42E3D3F1E7C0462810002030100020AB
:100B100010B50400FFF714FD01002000FFF7C8FF27
:100B2000FF232371BFF35F8F10BDC04610B50400D3
:100B30000120FFF711FD034BC3189B002360BFF397
:100B40005F8F10BD400000340A4B1968EFF310802E
:100B500072B60A68002AFCD0BFF35F8F1B68BFF330
:100B60005F8F00221A6080F3108840BF00200021B0
:100B70007047C046141E0020F0B5DE4657464E466C
:100B80004546E0B583B0EFF3058203231340B54A31
:100B9000990052580091904601229A409346B24BD8
:100BA0001A60B24B01935B46B14843634346082247
:100BB0009B5E9946002B3ADA43469B881BB2002B7A
:100BC00000DB9DE043469B79002B00D0E1E04346EB
:100BD00008241C5F002C20DB43465A6963001B1964
:100BE000DB00D3189D68DC686B1C00D103E1A048D2
:100BF000009984466144826A0B69AE1A9B1A9E4230
:100C000013D35A46036A1A420FD0994800F040FBAA
:100C10008C4202DCC7D18542C5D940BF03B0F0BCCD
:100C2000BB46B246A946A046F0BD0D61EDE742467F
:100C300052695B0092464B44DB009A4453469E68DF
:100C4000DF6800F025FB8F42B6DC00D1F8E0002F12
:100C500000DAD9E05246534654691B69019A93421F
:100C600000D1CCE0414652460820085E528800047C
:100C700021001043984704000D0023002B4300D1AE
:100C8000C2E0002D00DBDFE030003900001BA9418D
:100C900053469860D96000229A5E002A00DA8BE7FA
:100CA00043465D6953009C18E4002C19A768E4686A
:100CB0008C4200DD80E702D1874200D97CE74646BE
:100CC000328108360DE08C4200D1C6E01E000023C0
:100CD000F25E002A0ADB53009C18E4002C19A76876
:100CE000E4689B18DB00EB188C42ECDD53461A805D
:100CF0004B46338043469B881BB2002B00DA61E7EA
:100D000043461A69EFF3108172B61368002BFCD0CA
:100D1000BFF35F8F43469E88012342465B42938028
:100D200036B21369BFF35F8F00221A6081F3108817
:100D3000002E00DA46E743465D69083342469C468A
:100D40007700BF19FF00EF19BB686046984608237B
:100D5000D15E9246FC68002907DA0EE0A24246D036
:100D600018000023C15E002906DB4B005B18DB0086
:100D7000EB18DA68A242F1DD524606800023FE5EDF
:100D80003980002EDCDA904643469B79002B00D157
:100D90001DE7002342469371434646460821595EAB
:100DA00008364B1C00D138E747468946556902E0B2
:100DB00006004B1C18D04B005B18DB00E8180A003B
:100DC0008C46E95E43881BB2002BF1DA01235B42BB
:100DD000DC178360C4604A4503D031803B890380BF
:100DE0003A81E1464B1CE6D1B8464C46F2E69A6899
:100DF0004245B5D9C0E7631C00D0F8E605E72000FE
:100E000023699847002825D1534642461B88138101
:100E10001269EFF3108372B611680029FCD0BFF39A
:100E20005F8F4246514652880A8042464946518069
:100E30001269BFF35F8F0021116083F31088BBE656
:100E4000864200D803E7B7E6094800F021FA001906
:100E500069411DE7656824680FE7874200D835E7D8
:100E600044E7C046B81D00203C700540790B0010D7
:100E70000040054070B52E4C2569002D04D00A2194
:100E80002C48FFF715FE70BD2B4E0321300000F0FB
:100E9000F5F9E660FFF754FB284B03229C46D0236C
:100EA00022701B061B6801216370254B6044A36000
:100EB0000F23800020610220638063694942A18082
:100EC00019800231198647311D83585218315A5200
:100ED00075325C3999521832013199521832013108
:100EE0009952183201319952083518329D52023107
:100EF00018329952183201319952183201319952EF
:100F00001832013199521832013199521832013197
:100F100099520C4B0C49DC6001303562FFF760FBE5
:100F200001210320FFF74AFB084B1D60A7E7C046DD
:100F3000AC0F0020141E002000400540400000348B
:100F4000FFFF1000B81D0020790B0010386005402D
:100F500070B501000469EFF3108C72B620680028A8
:100F6000FCD0BFF35F8F02200D5E4C696800401912
:100F7000C0002418002D37DB208848800869BFF3A3
:100F80005F8F002606608CF31088E3606388049806
:100F9000013320615B0405985B0CA26060611A1C40
:100FA000002B1FD093B22804628018430A69EFF324
:100FB000108C72B61368002BFCD0BFF35F8F8B8848
:100FC00023808D800B69BFF35F8F00221A608CF342
:100FD00010880B7801329A40CB6808498C466344EC
:100FE0001A6070BD0122DDE70B69BFF35F8F00223D
:100FF0001A608CF3108801204042F2E73C20000088
:1010000010B543890A1493421ADD53009B184269B4
:10101000DB00D3180469EFF3108C72B62268002A43
:10102000FCD0BFF35F8F5A88090494B2090C8A423E
:1010300008D00369BFF35F8F00221A608CF3108819
:10104000002010BD8022120214435C80012302693B
:101050008371BFF35F8F002111608CF31088044906
:1010600002788C469340C268012062441360E8E72E
:101070003C200000F0B504000D0006267642F7176C
:10108000C64636196F4100B582B08F4214D811D0D0
:1010900000F006F932003B00121A8B41002B17DCDE
:1010A000002B47D02000290000F038F902B080BCA6
:1010B000B846F0BD8642EBD90022002316001F007F
:1010C00000F0EEF832003B00121A8B41002BE7DDF6
:1010D00000F0E6F832003B00121A8B41002B0ADBCD
:1010E00000230193154B3200009315483B00FFF796
:1010F0002FFF0028D6DB00239C46B046114A124E33
:10110000736A9F4204D8B16A8845CBD99F42C9D13E
:101110001168EFF3108072B60B68002BFCD0BFF3A0
:101120005F8F1368BFF35F8F6146196080F310888B
:1011300020BFE5E7002AB5D0CAE7C046490B00103A
:10114000AC0F0020141E00200040054070B50600C2
:1011500000F0A6F8FA2204000D0000233000002160
:10116000920000F0C9FC8023001969411B069942D6
:1011700002D3012002494042FFF77CFF70BDC04608
:10118000FFFFFF7FF0B5D6464F464646C0B5040088
:101190000D0082B0EFF305878946002F0ED0344949
:1011A00000204B6AAB4203D38A6A0130A24226D3A5
:1011B00002B0E0BCBA46B146A846F0BD2D4B9846F9
:1011C000DB689A46434650461E7800F061F80B00F3
:1011D000514602000436B600715820008E1A2900CC
:1011E000801A99418F4211DC0ED020BF204A002086
:1011F000536A4B45DCD3926A0130A242D8D25B1BC2
:101200005A1E9341D8B2D3E78642EED900F048F88F
:1012100022002B00121A8B41002B1ADB00230193B2
:10122000154B2200009340462B00FFF791FE011E54
:101230000FDD0F4B5A6A4A4517D39B6AA34212D35C
:101240004046FFF7DDFE0A4A0020536A4B45AFD304
:10125000D1E7074A0020536A4B45A9D3926A01207F
:10126000A242A5D2CBE74A45EAD120BFE8E7C04673
:1012700000400540AC0F0020490B001010B5024A99
:101280000248FFF7EDF810BDE43E00107819002089
:101290000300416A0A00986A596A8A42FAD1704783
:1012A000034B596A0A00986A596A9142FAD1704709
:1012B0000040054070B504000D00174A536A19003C
:1012C000966A536A8B42FAD13000190024184D41B6
:1012D000AB4216D813D0104A2B00526A954203D95C
:1012E0000D494A6A9A42FCD39A4207D10A4A02E05F
:1012F000516A994202D1916AA142F9D370BDA642C6
:10130000E9D9054B5B6A1C005A1CEFD0012301246C
:101310006442E5175B42E3E700400540064A536A32
:101320009942FCD807D1044B02E05A6A914202D19B
:101330009A6A8242F9D3704700400540F8B504002C
:1013400006200D0000F078F9002844D0374B3849CA
:10135000E3185A1E93418022120494465B429B0D6F
:10136000344A9B0563441360334A136018000A68CB
:101370009043FBD12D4B314AE31859424B41802118
:101380005B0049000620995200F056F92900C00080
:1013900000F024FB0130C3091ED140270122626204
:1013A000A362266BF30722D4E36A254B0620E518D7
:1013B00000232B60266300F03FF93900800000F025
:1013C0000DFB7023E26A5A400E3313402B601D4B15
:1013D00023630323A364F8BD1B4A93421ED9002351
:1013E0001A4A1B4F6262A362266BF307DCD5194BC6
:1013F000144AE3181A60656AA36A0620AD01ED1865
:1014000000F01AF9144900F0E9FAAD0201002800D1
:1014100000F0E4FA0021FFF74DFFC5E74006800E1B
:101420009F011A003F180300B9E7C0460080FCBFC7
:1014300008C0004000E0004000F00040181E0020FE
:101440002C10000001030000FEFF0000FFFF000061
:10145000C0FF3F00303000004E0E0000F8B5DE4601
:101460004E4657464546E0B58B4605000A9918009A
:10147000160000F0B3FA0A9B6C001F02324B64198D
:101480009C46A4006444636881469F4200D967601B
:101490002B1FDBB29846012B30D9C02380229B0141
:1014A000E31812011A60294BAD0059599A460029D8
:1014B0001BD17301E026226853401E408023424620
:1014C0005B01E3181E60012A30D9802380229B0132
:1014D000E31812011A6053464A4667605A51F0BC3D
:1014E000BB46B246A946A046F8BD586900F076FA58
:1014F000013043001B18033BFDD2DAE75B46012BAA
:10150000CBD1C02303229B01E3181A60023AA368DF
:101510001A42FCD07301E0262268AD0053401E4001
:1015200080230A4A5B019246E3181E605A462168EE
:10153000514003220A401A6001225B469A40A36888
:101540001A42FCD0C1E7C046008000407C19002050
:10155000F0B546464F46D646C0B51F00344B440052
:101560009C462418A4006444636888461600FF2B38
:1015700002D880235B006360031FDBB29A46012B15
:1015800030D9C02380229B01E31812011A60294B35
:1015900085005959994600291BD17301E02622681C
:1015A00053401E40802352465B01E3181E60012A0F
:1015B00030D9802380229B01E31812011A60802316
:1015C0005B0063604B465F51E0BCBA46B146A8463B
:1015D000F0BD586900F002FA013043001B18033BCC
:1015E000FDD2DAE74346012BCBD1C02303229B0176
:1015F000E3181A60023AA3681A42FCD07301E0268D
:101600002268850053401E4080230A4A5B019146B0
:10161000E3181E6042462168514003220A401A60C6
:10162000012342469340A2681342FCD0C1E7C04662
:10163000008000407C190020014B8000C05870479A
:101640007C190020F8B5040021481E0017000D0089
:1016500000F0C4F90100380000F0C0F9069B360420
:101660001B031E432368002B20DB1A4B1A49E31887
:101670005A1E93418022920194465B421B0B174AEB
:101680001B0363441360164A13601F000A689743E4
:10169000FBD1144B2560E2182123A060136023685E
:1016A000002BFCDA0823E6601360F8BD3F232268B4
:1016B0001340AB42D9D1A3681B051B0D8342D4D183
:1016C000EE22E368D2021340B342CED1EDE7C0462A
:1016D000001BB7000040FDBF08C0004000E0004014
:1016E00000F00040043000008023024A9B000B43BE
:1016F000D362704700800540142310B5010018889C
:1017000004331B88984710BD162310B501001888B4
:1017100002331B88984710BDF8B54746CE4680B5C2
:101720000F1E19D014239946043304000025012606
:1017300098464B461888434621681B88984701C441
:10174000431E9841013540420640AF42F1D130007E
:10175000C0BCB946B046F8BD0126F8E7AA23064A40
:101760001B0113608D235B00D3600449044B196097
:101770005368002BFCDA70470040024000B0FA00CA
:10178000006002407047C04610B50148FEF750FEA9
:10179000083F001070B5074D074EB54209D200242E
:1017A000013E761BB60808CD984723000134B342AA
:1017B000F9D170BD403E00107C3E0010054B064A3A
:1017C00006491A60064A074B1A6010000B689843D6
:1017D000FBD1704700E00040BFCDFBFE08C00040D9
:1017E000FE7F3C0000F00040044BDB6C002B03D17B
:1017F0008022034BD2021A607047C046000011508D
:101800004C201150044A054B1A60054A1368DB014D
:101810008033FBD17047C046FFFFFF0100F000405E
:1018200008C000404022034B9A675A671A67DA667D
:101830007047C04600F0014010B5FEF79FFE10BD96
:10184000F8B52749274C284D641AA6103200302ECF
:1018500000D930222800920000F0BEF9BC2C3BD801
:1018600030202F232C196407204A801BE40F9B1B78
:10187000052B16D93700002C02D0B300771CEA5094
:10188000001B33199B004108EB18C900C9181A60E6
:101890005A6008339942FAD1012303421CD098437D
:1018A000C619B300EA50731C2F2E15D09B00EA50C6
:1018B000B31C2E2E10D09B00EA50F31C2D2E0BD003
:1018C0009B00EA50331D2C2E06D09B00EA50731D5E
:1018D0002B2E01D09B00EA50054B9D60F8BDC04601
:1018E00000010010C001001000000020C101001024
:1018F00000ED00E0002310B5294C82B0A367FFF78C
:101900002DFF0122274B1A60636C012BFCD10322AF
:10191000254B1A60224A936B012BFCD101330093B3
:101920000121224A22480433FFF78CFE05230121BE
:101930000093204A2048FFF785FE00220221042060
:101940001E4BFFF705FE0022012105201C4BFFF76F
:10195000FFFD0022002107201A4BFFF7F9FD0022AE
:1019600000210820174BFFF7F3FD8023DB000093D5
:10197000002200210920134BFFF770FD0022104BBD
:1019800000210620FFF7E4FD0420FFF755FE0E4975
:1019900000F024F801000020FFF7A6FE02B010BD01
:1019A000008000403CB0004030B00040002F68593B
:1019B00000800240008C864700C00240001BB70038
:1019C00040597307006CDC0240420F0001480421BB
:1019D000014B1847D00F002019170010114A936FC0
:1019E0009B0813D210665166002905D0FFE7FFE778
:1019F000FFE7516F106F704704B5002801D0002039
:101A0000C04302F0E5F9002104BDC046F0B5146EF4
:101A1000556E576F166FFFF7E5FF146655665767EB
:101A20001667F0BD000000D0132370B51D78012D9E
:101A300019D014DD1F48FFF767FE06001E48FFF7A8
:101A400063FE1E4C80223100200000F0C5F8022DFC
:101A50002DD01B48FFF750FE1A4B186070BD1A4B73
:101A6000164CA364F5E7184B144C23606360A36025
:101A7000E36023616361A361E36123626362A36244
:101A8000E36223636363A363E36323646364A36424
:101A9000E36423656365A365E36523666366A36604
:101AA000E36623676367A367E367A364D1E7064B35
:101AB000A364CEE75344000053460000B011002059
:101AC0004C330000101E0020CD1A001007B56046F0
:101AD00001880A0A0230DF2AFAD1C9B2820804D387
:101AE000028840880004104300E00068014A50501A
:101AF000039007BDB011002051434343C9188C46E1
:101B0000110C83B24B4310B4040C614392B280B207
:101B1000504362431C041B0C001910BC59411304B0
:101B2000120CC0185141614470470000132310B5D6
:101B300012481C78FFF7E8FD0100012C0AD003DDF4
:101B400080220F4800F048F80E48FFF7D5FD0E4BF5
:101B5000186010BD0A4C5422200000F03DF80B4BD9
:101B60006365A365E36523666366A366E36623672F
:101B70006367A367E3672362E361E5E75346000019
:101B8000B01200204C330000101E0020911B0010EA
:101B900007B5604601880A0A0230DF2AFAD1C9B2C5
:101BA000820804D3028840880004104300E00068E3
:101BB000014A5050039007BDB01200200148042193
:101BC000014B1847E00F002019170010014B1B684C
:101BD00018470000E00F0020014B5B681847000029
:101BE000E00F002010B5002800D110BD00F026F94C
:101BF000FBE7C04610B5094A0300146884B0002C06
:101C000008D0012200910648524203A9A0470120B2
:101C100004B010BD00F05EF90020F9E7B01D00200F
:101C2000E51B001000BEFDE710B5FFF7FBFFC04647
:101C300070B5FFF7AFFD074D074EB54209D200243E
:101C4000013E761BB60808CD984723000134B34205
:101C5000F9D170BD7C3E0010883E0010030010B525
:101C6000080011001B68984710BDC046F0B5C64675
:101C700000B5437D07000D001600002B38D0002A68
:101C80002EDD00216A1E90466A5C037D4C1C0020FC
:101C90000A2A0CD0A64216D043461B5D21000D3BFC
:101CA0005A4253416A5CDBB24C1C0A2AF2D1002B27
:101CB000F0D1884217DB022110483B689847A642C2
:101CC00007D02000E8E7864203DD311A3B68281878
:101CD0009847AD19013D2B780D3B5A4253413B7556
:101CE00080BCB846F0BD091A3B6828189847E2E75F
:101CF0000368110028009847F2E7C04680400010B2
:101D0000F0B5DE4657464E464546E0B585B017006D
:101D10001C0006000D00FFF7C3FA0023314A121819
:101D20004B41802109068B4202D301222E4B5242A5
:101D30002E4908008A4602F063F801906B1C03D11B
:101D4000300001F09FFF0500002C26D0284B98465C
:101D5000284B1C68002C15D0002F21D1264F02E003
:101D60002469002C0ED02368002BF9D03B68002B8F
:101D700001D09C42F4D120002A003100C0472469E0
:101D8000002CF0D1019B002B28D1280005B0F0BC1D
:101D9000BB46B246A946A046F0BD184B9846D7E7C9
:101DA000154B994602ABDF1D0A239B4602E02469CE
:101DB000002CE7D02368002BF9D04B461B68002B82
:101DC00001D0A342F3D12A0031002000C0475B4676
:101DD0000122390020003B70C047E8E7504601F07F
:101DE000E7FFD2E740420F00FFFFFF7F28100020EF
:101DF0006D1C0010A4190020AC1900205D1C0010FF
:101E00000A4A1368002B05D10CE01A001B69103236
:101E1000002B07D09842F8D1002902D10369136042
:101E2000016170470029FCD01060FAE7A419002076
:101E300010B500F03BF9012010BDC046F0B5CE460C
:101E4000474680B583B06B460600DD1D2870FFF75E
:101E500027FA00231A4A12184B41802109068B42A7
:101E600002D30122174B524217490800884601F05D
:101E7000C7FF164B81461C68002C14D0144F02E09B
:101E80002469002C0FD02368002BF9D03B68002B6D
:101E900001D09C42F4D1200001222900FFF7E6FE88
:101EA0002469002CEFD14B46002B05D1300003B044
:101EB000C0BCB946B046F0BD404601F079FFF5E739
:101EC00040420F00FFFFFF7F28100020A4190020D0
:101ED000AC19002070B5040001F0D4FE012301000C
:101EE000050001222000FFF70BFF084B1C68002CA7
:101EF00006D06368002B05D098472469002CF8D1E0
:101F0000280070BD2469002CF3D1F9E7A419002042
:101F1000F0B5002915DD0E4B0D271A680D4B0E4C40
:101F2000D3185D426B41451820215B001E5F047889
:101F3000A64207D093691942FCD101301460A8422F
:101F4000F5D1F0BD93691942FCD11760F2E7C046A4
:101F50001C1E00200080FCBF181E0020204B70B506
:101F600004000D1E1E682ADD002010211D4B013CBF
:101F70001A689369194214D1013093691942FCD14E
:101F8000136823548542F4D1002E08D05023936364
:101F9000516B183B0B4014498C4662441360280077
:101FA0000CE0002E08D050239363516B183B0B407C
:101FB0000D498C466244136000280DD070BD002E80
:101FC0000AD05022074B1B689A63596B183A0A4093
:101FD00005498C4663441A6003204042EEE7C04640
:101FE0006C1900201C1E002034100000064B10B598
:101FF0001B68002B06D00021044A12689163044A32
:102000001068984710BDC0466C1900201C1E0020A7
:10201000701900200822034B19688B691A42FCD101
:102020007047C0461C1E0020F8B51A4F1A4B3A687C
:102030000500D31858424341184E14331C0033682E
:10204000002D02D0002B0FD0F8BD002BFCD00021BA
:1020500020009563FEF7B2FA20001149FEF7E4FB79
:10206000104B35601D60EFE70E4B200019600C49E6
:102070003560FEF7B5FA01212000FEF79FFA5022E5
:102080003B689A63596B183A0A4007498C46634487
:102090001A60D9E71C1E00200080FCBF6C190020CC
:1020A000ED1F001070190020341000000D4B10B50A
:1020B0001B780D4B0D4C1B780D4B02211B780D4BE3
:1020C00000202360FEF794F902210120FEF790F929
:1020D000E12120684902FFF731F901210648FFF7A5
:1020E0008FFE10BDA8410010A44100101C1E00204E
:1020F000A041001000400340F00F0020F8B500F0B0
:1021000043F90C23194DFF22AB6705201849FEF750
:1021100091FA184C402200212000FFF757FD40277C
:10212000002301262121144A66702783A2601360D0
:1021300063545F31618445396354104A10496360C8
:10214000E2602787A1620B606362E26201F068FED1
:1021500080239B052E64EB6490230A4A0120EA50F9
:102160008022094B5202DA64F8BDC04600001150CB
:102170001D030020B01900208400105000011050F1
:102180008000105010D001000020115010B5012126
:102190000520FEF713FA10BD10B5002200210248F9
:1021A00000F012F910BDC046D0190020044B197080
:1021B000002904D080219023024A8902D15070471F
:1021C000211E0020002011500B785B0602D14B78B5
:1021D000052B00D070478A78014B1A60FAE7C04699
:1021E00000001150F0B5C646C87800B58007830FCF
:1021F0001800012B60D08F780A794B797F21394004
:10220000FC091B024E001343334D32195201AA1828
:10221000977001276740577000275B055B0DD770EB
:102220001383D076B846CA00012C32D02B4FBC465F
:102230008F016244BC46AC446746BA6047461760AB
:10224000002932D0264AC900904662464144516076
:102250003F223F339343022837D0224937190A6877
:102260007F01D3180B602049EF19FA608B422ED8FA
:1022700036197601AD19EB7E1C499B064A40134383
:102280008022120613436A681360012080BCB8469E
:10229000F0BD174FBC468F016244BC46AC44674654
:1022A000BA6247461760002908D1002364012C193F
:1022B0006360104BE360E8E70020E7E70B4AC900E2
:1022C0009046624641445162C2E75B00C5E7FFF7B2
:1022D0005BFAFA68CCE7C046B019002084001050C1
:1022E00004001050B41D0020FF0F105000001050CB
:1022F000800010500001105010B501F091FD10BD8C
:1023000010B57F200C0020404000E40911000019A6
:102310001A00034B4001C01800F056F8012010BD10
:10232000B01900207F23180010B50840CA090B42DD
:1023300003D107497D3B9B1A8B66400080188022A1
:10234000044B40010021C018120101F071FD10BDC5
:1023500000201150B01900207F22130010B50B404F
:102360000A4200D110BDC9095B005B1804485B013B
:10237000C018002300220349C37001F059FDF1E7A2
:10238000B0190020FFF7FFFF80220A4B520410B55E
:102390001A60094B09491A6010000B689843FBD179
:1023A0008022002152010648FFF710FC0922054B4C
:1023B0005A6710BD00E0004000F0004008C0004037
:1023C0000000105000001150002310B5C3820133EB
:1023D000828283760161040001F0F2FC002804D0BF
:1023E00080219023074A8902D150200001F0F8FC97
:1023F000002802D00123237710BD200001F008FD42
:10240000FAE7C04600201150002070477047C046D0
:102410007047C0460020704700207047002070477A
:102420007047C0467047C0467047C0467047C046B8
:10243000F0B5D6464F464646C0B52F4B07009A46E4
:102440001B780E00FF2B01D0012041E000293ED077
:10245000002154222948FFF7B9FB0022284C294BC0
:1024600020001A70FEF754FB274B1C60274C2000FD
:10247000143CFEF75BFB200001F0B6FB244B254D1E
:102480001C60254B002B28D0280000E000BF234B08
:1024900018602B78224A00249146204A90460EE08C
:1024A00043461B6862019B18002B10D05B68002B11
:1024B0000DD0984701342B78E4B2A3420FD3A34246
:1024C000EED8E31A5B014B445B68002BF1D100208E
:1024D000E0BCBA46B146A846F0BD2B78DAE75346D1
:1024E000310038001F70FFF709FE0028EFD03800D8
:1024F000FFF74CFE0120EBE724100020041600201B
:10250000FC150020221E0020581600201C10002060
:102510005C160020201E0020000000006015002036
:1025200048410010F0B5DE4657464E464546E0B5F8
:10253000CA4B8FB003931B78FF2B00D146E1C84BE9
:10254000C84E9B465F46C84B0BAC0293C74B0193EA
:1025500035686A69EFF3108172B61368002BFCD0FE
:10256000BFF35F8FA9612800210001F06BF96A6950
:10257000AB69BFF35F8F0021116083F310880028DF
:1025800000D123E16378082BE2D89B00FB589F46DB
:102590006368002BDCD0A0689847D9E77F222179B7
:1025A000B14D0A405300EB189846C8098044404694
:1025B0000123303005799D430571057903339D432F
:1025C0000571002A00D108E14346A94A1B7D127813
:1025D000934200D3F8E0A74A5B011568ED18002D7F
:1025E00000D1F3E0A36862792078AD69A847AFE72E
:1025F000A14A1378002B00D1E8E01378013BDBB24D
:1026000013701378002BA3D10122974D01212B7851
:10261000042013432B703423EA5C8A43EA54EA5CB7
:102620008243EA540133EA5C8A43EA54EA5C824317
:10263000EA5423780020984600F032FC6022237987
:102640001A40602A00D1F3E0402A00D1F9E0DB060D
:10265000DB0E012B00D117E1022B00D1CCE0002BC7
:1026600000D0E5E0202A00D10FE2002A00D0DFE010
:102670006379092B00D9DBE0804A9B00D3589F4641
:10268000794D2B78DB0700D462E7FFF7CFFE5FE7D9
:10269000029BDB78DB0700D45AE76068FFF7B8FEDF
:1026A00056E7714D2B78DB0700D451E728780007F7
:1026B000C00FFFF7B9FE4BE723786C4A9846934664
:1026C0006B4B6C4A9946310092463A0046464F465B
:1026D0000025914688461B780EE053461B686A0128
:1026E0009B18002B00D17EE0DB6830009847013555
:1026F0003B78EDB2AB420CD39D42EED3EB1A5B01BB
:102700005B44DB683000984701353B78EDB2AB4263
:10271000F2D2554D542200212800FFF757FA10221B
:10272000FF21281DFFF752FA28002022FF21143034
:1027300046464F46FFF74AFA00F0A8FB2379AB70F4
:1027400006E723784B4A9846494B92469946320011
:10275000BB46464600254F4690461B780DE0534643
:102760001B686A019B18002B41D0DB68300098473A
:1027700001353B78EDB2AB420ED3AB42EFD8019AB4
:10278000EB1A94465B016344DB68300098470135DF
:102790003B78EDB2AB42F0D2029D542200212800DA
:1027A000FFF714FA1022FF213548FFF70FFA28002F
:1027B0002022FF21143046465F46FFF707FA00F05B
:1027C00065FBFFF72FFEC3E6934213D00FB0F0BCBA
:1027D000BB46B246A946A046F0BDA3686279207800
:1027E00000F072FBB4E646464F461F4DA4E746464E
:1027F0005F46E4E71D4DF5E67023217A0B4217D1C1
:10280000C80983460F330B405B0099461848EB1804
:102810005B441B7D0078834261D216485B010068EF
:1028200082469A44002A00D14EE15346002B5ED1E5
:1028300020780021FFF776FD80212078FFF772FDD8
:1028400086E6104800F02CFB012140460CAAFFF759
:10285000DBFD002800D07BE6EAE7C046241000201C
:10286000A04000105C160020041600204841001013
:10287000201E002060150020221E0020C4400010F1
:102880000816002009240010237A0F2BD0D8D54A2F
:10289000EB181B791278934234D3C9D1D24D6869B1
:1028A00000F0FEFA012140466B690CAA9847002807
:1028B00000D04DE66022150023791D401A42B7D1A1
:1028C00063790A3B012BB3D800F0EAFA63790A2B4B
:1028D00000D17DE140460CA900F06CFA38E6834255
:1028E00000D0ECE0C04B9A46002A00D1ECE0534601
:1028F000586900F0D5FA5346012140465B690CAA9D
:102900009847A6E7B94A5B011568ED18002DC6D1B6
:102910008EE7A3799A466B789A45DBD06B78002BCB
:1029200000D028E153466B70002B00D120E15046C7
:102930000138C0B2FDF720FD002800D171E14378D5
:10294000022B00D06DE10122C179A9468B114911FA
:1029500013400A40302112015B0113432A788A4355
:1029600013432B7009239B4683445D46B346C378CB
:1029700082781B021343C31806939A4B049705935E
:10298000994B0893994B9A46994B0993069BAB42F6
:1029900000D849E16B7801220B2B03D12B78EA7820
:1029A000ED186B78042B00D038E1069B00265B1BEA
:1029B0009BB20793059B17001B7818E053461B68D2
:1029C00072019B18002B00D128E1290040461B69A9
:1029D000079A9847082803D9079B834200D30BE145
:1029E000059B01361B78F6B2B34200D216E1B34222
:1029F000E4D8089AF31A94465B016344E5E76B78E0
:102A00000AAA02321370404601230CA900F0E8F92B
:102A10009EE5E3881A0AD8B20F2A00D908E775495B
:102A20009300CB589F460CA800F040FA4046A1798D
:102A3000FFF7B2FB02222B7813432B7088E5E38863
:102A4000012B00D0F4E608222B78404693430CA9D2
:102A50002B7000F0AFF97BE5022029780AAB9A1CB5
:102A60008B068908DB0F01400B431380404602238D
:102A70000CA900F0B5F96BE5E388012B00D0D7E68F
:102A800008222B7813432B7024E7237A0F2B00D9CD
:102A9000CEE6544AEB181B791278934228D2534A57
:102AA0005B011568ED18002D00D1C1E6686900F0E2
:102AB000F7F9012140466B690CAA9847C9E6002A3C
:102AC00000D0B5E600239A466279022013000492F2
:102AD0008343012B11D0002A00D0A9E62B004B44E0
:102AE0005B4430331B790AAA9B07DB0F0232BCE739
:102AF000934200D09CE63C4DD8E7E388002B12D1EE
:102B0000039B1878049B012B23D0FFF70BFC4B464B
:102B10000221EB185B4430331A790A4301211A7100
:102B20001A790A431A715346002B00D110E55869EF
:102B300000F0B6F9534601215B690CAA404698475C
:102B4000002000F0ADF93523EB5CDB0700D5FFE496
:102B5000C0E6FFF701FC4B460221EB185B44303323
:102B60001A798A431A711A7904998A431A71DAE731
:102B7000FFF758FCAEE600214046FFF717FB404642
:102B8000FFF7BAFB00229346174AAB780592174A23
:102B9000049306922A00134B5D46994693461B7890
:102BA0000EE0069B6A011B689B18002B55D0DB6862
:102BB000404698474B4601351B78EDB2AB4238D3BF
:102BC0009D42EED3059AEB1A94465B016344EEE70F
:102BD0000AAB9A1C404601230CA9157000F000F9BD
:102BE000B6E4C046201E00204841001060150020B9
:102BF00018160020EC4000103A000700002A3CD0D4
:102C0000AB789A18D2B204E00133DBB20E719A426B
:102C100033D04946C9180879FF28F5D05E464D469D
:102C2000049F00236B7003E65E46049FFFF7F8FBEA
:102C300050E65D46542200212800FEF7C7FF10220F
:102C4000FF21281DFEF7C2FF28002022FF2114309B
:102C5000FEF7BCFF049BAB7064E65D46FAE7FFF746
:102C6000D9FB021E00D1E3E5D37891781B020B4318
:102C700040460CA900F0B4F8EBE5330029003A0017
:102C8000099800F097FB059BED191B78B34200D320
:102C90007CE6C3E7FFF7C0FB021E00D1C8E5404653
:102CA00013780CA900F09CF8D3E52189FDF768FBA7
:102CB000021EF4D1BCE5022A0FD0FFF7AFFB021EC3
:102CC000D2D1B5E5FDF754FB021E00D1B0E51223C9
:102CD00040460CA900F084F8BBE5FDF74DFB021E51
:102CE000C2D1A5E5702270B5094B0C001D788B7818
:102CF0001A4201D0002070BD064B2000997800F0E8
:102D00001BFB0028F6D021002800FFF76BFAF2E742
:102D100024100020041600200B007F2010B518405E
:102D2000DB0934334000044AC018044B1168C01852
:102D300000F0BEFA10BDC046581600200416002050
:102D40000B007F2010B51840DB0934334000044AE3
:102D5000C018044B1168C01800F0D2FA10BDC0466C
:102D6000581600200416002070B57F240F480C4030
:102D700064000419CD09641930342079C00701D5E5
:102D8000002070BD0126257909483543007825715A
:102D9000FFF7B6FA0028F4D1012223799343237177
:102DA0002379033293432371EAE7C04604160020D7
:102DB0002410002070B5094C0600082220000D00E8
:102DC000FEF70AFF00238021E360A3602B78300028
:102DD000994300220023FFF7C7FF70BDA415002010
:102DE000F8B5CE4647469046264E80B58146082225
:102DF00030000D001F00FEF7EFFE4346B3600023D6
:102E0000F381EC79AB7924021C43231CBC4200D92A
:102E10003B1C9FB2B381002C0ED0002F18D043462C
:102E2000002B2CD03B1C402F1BD89FB233787F2B1C
:102E30001CD80021144A0FE080212B7800229943EE
:102E400048460023FFF790FFC0BCB946B046F8BD26
:102E50007F230022317899433B004846FFF784FFE7
:102E6000F2E740239FB233787F2BE2D9064C3A0039
:102E700041462000FEF7B0FE80212200ECE7002052
:102E8000E2E7C046A41500206415002010B5142206
:102E900000210248FEF79AFE10BDC046A41500208E
:102EA000014B18617047C046A415002010B5054CB1
:102EB000010008222000FEF78FFE0023A360E360DC
:102EC00010BDC046A415002070B5384C1D002378F5
:102ED0000600DA09C9098A4210D00020002D00D06E
:102EE00070BD21003000FFF76FF92369002B03D07C
:102EF00022000321300098470120F1E7A0687F2BD2
:102F000005D8002834D02A002949FEF765FEE28959
:102F1000A1685219E38892B24919E281A1609342F3
:102F200014D03F2D12D9A389981A051C80B24028CD
:102F30002AD82078ADB27F2828D800219A4232D0F2
:102F40001B4A2B003000FFF70FFFC9E72369002B56
:102F500005D0220002213000984700280AD08021A5
:102F600023780022994330000023FFF7FDFEB7E7E6
:102F70000020B5E700213000FFF7D4F930008021B0
:102F8000FFF7D0F90120ABE74025D2E79A4207D0FE
:102F9000074C2A002000FEF71FFE80212200D0E708
:102FA00080210022CDE70022CBE7C046A4150020F7
:102FB00064150020030010B50020002B02D1024848
:102FC00000F014FC10BDC04610180020030010B51E
:102FD0000020002B06D1044813000A000100002045
:102FE00000F064FB10BDC04608180020030010B5B7
:102FF0000020002B07D104481204130C0A00010022
:10300000002000F08FFA10BDA4170020030010B5B7
:103010000020002B02D1024900F052FA10BDC04638
:10302000A417002070B5124C84B0CC2200212000DF
:10303000FEF7CCFD2300402520000E4E8C33029677
:10304000009300220023002103950195683000F0D1
:10305000CBF94036201D283400230122002103959E
:1030600002960195009400F0BFF904B070BDC0460F
:10307000A01700202017002010B5054C200000F0FC
:10308000E9F92000643800F0E5F9012010BDC046E0
:103090000818002070B5074C0025200070302570FE
:1030A00000F0A2FD20000C3000F09EFD6923657148
:1030B000E55470BDA0170020F8B557464546DE46DA
:1030C0004E46E0B54B7980460F00FF2B25D1404B93
:1030D0000C78994669234946CB5C002B1DD14E796B
:1030E000002E1AD1BB783C190B703B79002B11D004
:1030F00070234B449A460C234B449B46A518637897
:10310000052B05D110E02378E4186378052B0BD04C
:10311000A542F8D8E01B80B200E00020F0BCBB461E
:10312000B246A946A046F8BDA542F3D921004046C3
:10313000FFF7D8FD0028F0D0A3780136F6B2DB09FE
:10314000012B27D0504600F04FFD69234946A27855
:103150000220CA54637922791B0213431D4A5B057E
:1031600094465B0D634468215A4253414A46525C7F
:103170005B00824313434A46535451464046083944
:1031800000F026FA0028C8D02378E4183B79B3422F
:10319000B5D8BFE7584600F027FD5A46A3780C3A49
:1031A0005371637921791B020B430A495B058C46F5
:1031B0005B0D634459424B41022011795B0081430E
:1031C0000B43594600200839137100F079F9DBE709
:1031D000A017002000FEFFFF70B5050069201C4C01
:1031E0001E00205C6379884203D000208B4219D0F6
:1031F00070BD7423E35A002B0DD1164B002B04D065
:1032000000201549B2B200E000BF2800134900F0C9
:10321000DFF90120ECE72000E16EB2B2703000F07F
:1032200027FCEAE70E4B002B04D031040020090CE8
:1032300000E000BF0B4C2800210000F041F90028FD
:10324000E7D132002100280000F006F90120CFE785
:10325000A017002000000000201700200818002000
:1032600000000000A417002000B5030083B000296F
:1032700010D00020012B07D80A78002A04D00B4870
:10328000C2540120012A01D003B000BD1800FFF78D
:10329000CFF8F9E7012301A900200B80FFF7C8F858
:1032A0000028F1D00122014B1A70EDE7F81500203B
:1032B000037870B5DB0704000E00DD0F002B17D17B
:1032C00003785B0701D5280070BD01213000494219
:1032D00000F08EFD2378DB07DD0F002B0AD1237869
:1032E0005B0708D40422237801251343237002E0EE
:1032F0000025E8E70025300000F05AFDE3E7C0466E
:1033000070B50C00012106004942200000F070FD5C
:1033100033785B07DD0F002B04DB200000F048FD55
:10332000280070BD3378DB0704D40422337893433C
:103330003370F2E70025F0E7437902791B0213436B
:10334000C2785B0592075B0D920F022A1DD0032AFB
:103350000CD00020012A08D102394A425141124AB8
:103360009446614499424041C0B2704702394A1EB6
:1033700091410E4A494211408022D20094460020D9
:10338000614499424041C0B2EFE7022905D00020D4
:1033900040229A424041C0B2E7E7054A98184342AA
:1033A0005841C0B2E1E7C046FF03000040FCFFFF08
:1033B00000FEFFFF8A1870B5914207D27F264C7835
:1033C000052C04D00C7809198A42F8D870BD340055
:1033D0008D782C4064000419ED0963550C780919A7
:1033E0008A42ECD8F2E7C046F0B5C64600B582B0D6
:1033F000150008AA40CA040017880BAA12880120E9
:1034000090460A0021780240814320001143217038
:103410003A00009331000123083000F0B1F9002E8A
:1034200001D0002F08D10A9B0120636043466380CE
:1034300002B080BCB846F0BD26001C363000FDF757
:1034400067FB0023002D01D0330000266361A661D5
:10345000E9E7C04601207047F8B502240B78070061
:103460001C4063425C41144B64421C40134B0800F7
:103470009C4608300D001600644400F0B7F900289F
:1034800007D1002E05D0344203D101242B781C42F1
:1034900001D00020F8BD38006978FFF73DFC002816
:1034A000F7D02B781C42F4D1002300223800697831
:1034B000FFF75AFCEEE7C04640FEFFFFFF010000A9
:1034C000F8B50D000835060028000C0000F08EF954
:1034D000002803D0012723781F4201D00020F8BD27
:1034E00030006178FFF718FC0028F7D028006288C8
:1034F000616800F0F5F92378051E0BD01F42EDD16D
:103500000300626830006178FFF72EFC0028E5D0E8
:103510002800E4E71F42E1D130006178FFF710FC9A
:10352000DCE7C046F0B5C64607000C0090461D001B
:1035300000B5002B05D08B89002B23D10B78DB073E
:1035400004D50026300080BCB846F0BD4978FFF7AE
:10355000E3FB0028F5D06688AE4235D832004146FC
:103560006068FEF739FB2378DB07EAD40022617834
:10357000002E00D062683800B3B2FFF7F5FB0028D8
:10358000E0D1DEE7082341469846AAB20225A044CE
:10359000404600F06DFA237806001D406B425D4105
:1035A0000A4B6D421D4080239B009C46404665446B
:1035B00000F01CF9A84202D2A389AB42C2D221007A
:1035C0003800FFF77DFFBDE72E00C7E740FEFFFF95
:1035D000F8B5CE46474680B58A8905000C000B78C1
:1035E000002A07D101261E423FD00020C0BCB946A8
:1035F000B046F8BD9B0734D5FE2380261B029946B2
:10360000B60027000837380000F006F98642ECD8EB
:103610000122237890461A42E7D128006178FFF70B
:103620007BFB0028E1D0380000F0F6F8864231D864
:103630004146237862881942D7D14B461840061C70
:10364000904200D9161CB6B200226178002E00D03C
:10365000626833002800FFF787FB0028C5D03000E0
:10366000C4E7114B40269946CBE74978FFF754FB56
:103670000028BAD0227863881642B6D10022617839
:10368000002B00D062682800FFF76EFB0028ACD04A
:103690006088ABE7424623781A42A6D128006178B9
:1036A000FFF74EFBA1E7C046C0FF0000F0B50C00DD
:1036B000D6464F464646C0B52700083711000600DB
:1036C0009AB2380000F00CF9A3890500002B09D14B
:1036D000012723781F423DD02800E0BCBA46B146FE
:1036E000A846F0BD23789B072FD5FE231B029A46E0
:1036F00080239B009846380000F08EF84045EBD3BD
:103700000122237891461A42E6D130006178FFF712
:1037100003FB0028E0D0380000F07EF8804524D874
:103720004946237862881942D6D153461840031C73
:10373000904200D9131C9BB200226178002B00D06C
:1037400062683000FFF710FBC6E70C4B9A46402337
:103750009846D0E730006178FFF7DEFA0028BBD04A
:10376000227863881742B7D1E6E74A4623781A429F
:10377000B2D130006178FFF7E3FAADE7C0FF000097
:10378000F0B5C64600B5040006A805788020884636
:1037900017001E000002824226D8E068002803D0ED
:1037A0000121494200F024FB2069002803D00121B7
:1037B000494200F01DFB4346236073045B0CED039C
:1037C0001D430023E0686381A780E58023810028F2
:1037D00001D000F0EDFA2069002801D000F0E8FAED
:1037E000012080BCB846F0BD0020FAE710B504897E
:1037F00041898288A3B288B28C4207D31B1A9BB23C
:10380000101C9A4200D9181C80B210BD5100091A30
:103810005B189BB2F4E7C04610B5048941898288E1
:10382000A3B288B28C4207D31B1A9BB200209A42E3
:1038300001D9D21A90B210BD5100091A5B189BB27F
:10384000F4E7C04670B5040000690E00002803D0FC
:103850000121494200F0CCFA25896089A288A9B2E9
:1038600083B285422CD3CD1AADB2002D2ED0AA4200
:1038700008D2914230D3891A8BB263819A4203D81D
:103880009B1A9BB29A42FBD9E28821685204520CDF
:1038900053433000C918FEF79FF963890125591C6D
:1038A00089B2A2888B4213D900215200891A89B2A9
:1038B00020696181002801D000F07AFA280070BDEB
:1038C0005500ED1A4D19ADB2002DD0D1618989B2E4
:1038D00052009142ECDBE9E789188BB26381CDE7B6
:1038E000F0B546464F46D646C0B506000069894643
:1038F0009046002803D00121494200F079FA31892D
:103900007289B5888BB294B2914254D31F1BBFB257
:10391000002F4AD0BD4205D2AB4251D25B199CB2B6
:103920002F0074814346B8453DD89FB2A54203D8C5
:10393000641BA4B2A542FBD9F28831685204520C30
:10394000904662432B1B9BB2891842469F4225D961
:1039500053439BB21A0048469A46FEF73DF9434648
:1039600048467D1B64195C4331685044A2B2FEF79F
:1039700033F97189B588CB199BB26A00994216D97F
:103980009B1A9BB230697381002801D000F010FAB5
:103990003800E0BCBA46B146A846F0BD48467A4376
:1039A000FEF71AF9E5E73B1CBFE773899BB26A0093
:1039B0009342E7DBE4E76F003F1BDF19BFB2A7E7E5
:1039C0005B1B9CB2ACE7C046F8B50400C0680E00B3
:1039D000002803D00121494200F00AFA25892089F4
:1039E0006189A288ADB283B28FB2884229D3DB1B32
:1039F0009BB29A4209D8E779FF0906D1E06800280E
:103A000001D000F0D5F93800F8BD95421ED32B0047
:103A10009B1A9BB29342FBD2E28820685204520C5C
:103A200053433100C018FEF7D7F86B1C9BB2A28835
:103A30009D4218D9002352009B1A9BB20127238173
:103A4000DCE75100C91B5B189BB2D2E72B00E28870
:103A500020685204520C53433100C018FEF7BCF8E2
:103A60000135A288ABB252009342E7DBE4E7C046DF
:103A7000F0B557464546DE464E46E0B51400050013
:103A80000F0083B0002A75D0C068002803D0012140
:103A9000494200F0ADF92E89E9796A89AB88B6B25E
:103AA00092B2C90945D1964200D36DE059008A1AF5
:103AB000B21892B2002189469A4234D29A1A111C45
:103AC00092B2A24200D9211C8AB29146EA885204DD
:103AD000520C90464A46B21892B292464A46D21AC0
:103AE00092B2934634009E4203D3E41AA4B29C429D
:103AF000FBD24246624328681B1B9BB28018424699
:103B00004B4554D34B4639005A43FEF765F8AB8812
:103B10005B00564501D89A4503DB5246D31A9BB247
:103B20009A4653462B81E868002825D000F040F9DA
:103B300022E0E9884904490C88469C4227D29642F3
:103B400047D3B11A89B28C465800E11A89B28B4624
:103B500061460919814208DBD11889B20E1BB6B241
:103B60008A46B2423BD9361AB6B2A21992B29246EE
:103B7000A146B7E700239946484603B0F0BCBB46D0
:103B8000B246A946A046F0BDB21A92B292E7002111
:103B90008946002BC7D04146E41A4C431600D11881
:103BA000002289B28A46994693463F199AE75343C1
:103BB0009BB21A0039005C440193FEF70DF84146B0
:103BC00022004A43019B286892B2F918FEF704F8D4
:103BD0009DE75800811A711889B28C46B5E7A14655
:103BE000B04200DD7EE7BEE710B50400C0680028E3
:103BF00003D00121494200F0FBF82069002803D0DE
:103C00000121494200F0F4F80023E0686381238138
:103C1000002801D000F0CCF82069002801D000F085
:103C2000C7F8012010BDC04610B5024800F004F8E6
:103C300010BDC046C81D002010B588B004000D227C
:103C400000216846FDF7C2FF0D22002104A8FDF700
:103C5000BDFF4B236A466846137004A90D2200F08D
:103C60009FF81521082220006944FDF7B5FF08B030
:103C700010BDC04610B5010000230022002000F056
:103C800043F810BD10B583070AD00300032102E0FA
:103C900001330B4205D01A78002AF9D1181A10BD49
:103CA000030019680C4A0D4C8A188A4322420FD12E
:103CB0005968094A04338A188A43224208D159684C
:103CC000054A04338A188A432242F1D000E00133C6
:103CD0001A78002AFBD1E1E7FFFEFEFE808080809B
:103CE00070B5074C074D641BA41005D0013CA30020
:103CF000EB589847002CF9D100F04EF870BDC04643
:103D0000883E0010883E0010F0B5C6461A4C00B53B
:103D10002568002D2AD06C681F2C2ADC002808D1C9
:103D20000020631C0234A4006B60615180BCB84663
:103D3000F0BD8827A600AE19F2510137FF37BC4607
:103D40000122AC446746A2403F6890461743624652
:103D5000176084277F00F3510228E1D128004246F2
:103D60008D30FF30036813430360D9E7034D2560AE
:103D7000D1E701204042D9E75C150020CC13002098
:103D8000034B10B5002B02D00248FFF773FF10BDA4
:103D900000000000E13C0010F8B5C0460000000043
:103DA00001B40248844601BC604700BF090E0020F0
:103DB00001B40248844601BC604700BFED01002009
:103DC00001B40248844601BC604700BF110A0020CC
:103DD00001B40248844601BC604700BFD90E0020F0
:103DE00001B40248844601BC604700BF390A002084
:103DF00001B40248844601BC604700BF5D01002059
:103E000001B40248844601BC604700BFC1000020E5
:103E100001B40248844601BC604700BFC90A0020C3
:103E200001B40248844601BC604700BF150200206F
:103E300001B40248844601BC604700BF790A0020F3
:103E4000BD170010E9170010CD190010BD1B0010A0
:103E5000291A00102D1B0010F5180010051800106D
:103E60002518001039180010C10A00104118001060
:103E7000750E00108517001099050010813D001087
:083E8000293C0010FD020010B6
:103E880041434B0054505345204C616200000000F0
:103E98005069636F205379734D6F6E20446576695E
:103EA8006365000030303032000000000A2A2A2AF8
:103EB8002050414E4943202A2A2A0A000A000000BD
:103EC8004E6F207370696E6C6F636B7320617265DF
:103ED80020617661696C61626C650000486172649A
:103EE8007761726520616C61726D20256420616C58
:103EF800726561647920636C61696D6564000000B6
:103F080048617264206173736572740052656C65F0
:103F180061736500626F6F74325F77323571303864
:103F280030000000322E322E300000007069636FBE
:103F3800000000007069636F5F7379736D6F6E5F67
:103F480064657669636500004A616E202035203219
:103F5800303236005541525420737464696E000043
:103F680055415254207374646F757400554152540E
:103F780020737464696E202F207374646F757400E5
:103F8800556E68616E646C656420495251203078C2
:103F980025780A0065702025303258207761732013
:103FA800616C726561647920617661696C61626CCB
:103FB8006500000043616E277420636F6E74696E3C
:103FC80075652078666572206F6E20696E6163740E
:103FD8006976652065702025303258004C454400CC
:103FE800000000008C3E0010983E0010AC3E00100F
:103FF8000902200001010080320904000002FF00CC
:10400800000007050102400000070581024000008A
:104018001201000200000040FECA02500001010225
:104028000301000006005250D3F07542143F0010FF
:1040380006005250E182887F1C3F00100600525053
:10404800ABB360532C3F001006005250BBFF3CB688
:10405800343F001006005250861C03023C3F0010FB
:10406800060052505422A29D503F001005005250A5
:10407800DE65F4681C5100100D0A0000060052505D
:1040880053B4F4A1743F001008005250120000000D
:10409800080052509210000050250010B826001059
:1040A8004227001090260010A2260010802600103B
:1040B800F02500109C25001090250010582A0010AB
:1040C8003E2A001030280010782A001030280010EE
:1040D800262A0010122A001030280010FE2900108D
:1040E8001229001030280010C42C0010B62C001023
:1040F800AA2C00103028001030280010942C001032
:10410800B62C00103028001030280010302800107D
:1041180030280010302800103028001030280010F7
:104128005E2C00109A0B00209A0B0020E40B002054
:10413800040C0020420C0020540C0020900B00209E
:104148000000000025300010793000109530001074
:10415800B930001009240010D93100100000000007
:104168000900525000000002E43F001008005250BD
:04417800121002001F
:10417C002C400010384000104440001050400010FB
:10418C005C40001068400010744000107441001036
:10419C0068410010984000109040001084400010BE
:1041AC00F0B5C646150000B504001E000268EFF31A
:1041BC00108172B61368002BFCD0BFF35F8F042301
:1041CC00E356002B2DDB2268BFF35F8F00201060BD
:1041DC0081F31088D0221206127852B290469A427D
:1041EC0003D1002080BCB846F0BD00270BE023684B
:1041FC00BFF35F8F1F6081F310882800310000F03F
:10420C00E7FE0028EDD12268EFF3108172B6136837
:10421C00002BFCD0BFF35F8F23797F2BE7D943466C
:10422C0002E0D0231B061B6823712368BFF35F8F4A
:10423C0000221A6081F310880120D3E7F0B5C6463E
:10424C0000B50D00040000F0E3FEFA2206000F009A
:10425C00002328000021920000F0E2FE8023361893
:10426C004F411B069F4202D30126174F7642D023A3
:10427C001B061B68002598460BE02368BFF35F8F75
:10428C001D6081F310883000390000F0A1FE002879
:10429C0018D12268EFF3108172B61368002BFCD092
:1042AC00BFF35F8F23797F2BE7D9434623712368B4
:1042BC00BFF35F8F00221A6081F31088012080BC4D
:1042CC00B846F0BD0020FAE7FFFFFF7F0268EFF36E
:1042DC00108172B61368002BFCD0BFF35F8FFF23E5
:1042EC0003710368BFF35F8F00221A6081F310889B
:1042FC0040BF70470022154B10B59A60DA601A6106
:10430C005A619A61DA611A625A629A62DA621A63C3
:10431C005A639A63DA631A645A649A64DA641A65A3
:10432C005A659A65DA651A665A669A66DA661A6783
:10433C005A679A67DA67F03292000021044800F05D
:10434C003FFE044B044A1A6010BDC04600001050DA
:10435C00F0190020B41D002080011050F0B54E461D
:10436C004546DE465746E0B5214B00249E6D01259F
:10437C0085B0002E22D01F4B9A46012399461E4B26
:10438C00984601E0202C19D02A00230001342F007C
:10439C003240E4B26D00002AF4D0524697654A468A
:1043AC005B085B0022409B185B01434418009B4652
:1043BC0000F030FC002808D1BE43E3D105B0F0BCBE
:1043CC00BB46B246A946A046F0BD5B46E0219A78B2
:1043DC00DB8A01A883600023C900018001210271DE
:1043EC00437100F037FC584600F0B0FBE4E7C046E0
:1043FC000000115000301150B01900209823F0B576
:10440C00C646C64A00B5D55880232E009B02102400
:10441C0084B01E401D4273D0C14BC24C9A6AC24B31
:10442C0000261A603B23E35C022B00D1F4E07B23D3
:10443C00E35C022B00D10CE1BB23E35C022B00D12B
:10444C00FBE0FB23E35C022B00D135E13C23FF3383
:10445C00E35C022B00D122E17C23FF33E35C022BD3
:10446C0000D10FE1BC23FF33E35C022B00D1FCE055
:10447C00FC23FF33E35C022B00D1A6E1AB4BE35CE6
:10448C00022B00D196E1AA4BE35C022B00D185E113
:10449C00A84BE35C022B00D174E1A74BE35C022B2D
:1044AC0000D163E1A54BE35C022B00D12AE1A44BC4
:1044BC00E35C022B00D10BE1A24BE35C022B00D19D
:1044CC008FE1A14BE35C022B00D1A6E1002E08D1B9
:1044DC009E4B1B78002B04D180219D4A903389027E
:1044EC00D150C0228D4B01A89B6C92005B055B0DDB
:1044FC00012180260280436000F0ACFB954CB60293
:10450C00EB0600D57CE080235B021D4232D01E43BB
:10451C00012302249846834FBB7E002B14D000F05D
:10452C005FFD012800D96FE0C02200213800920104
:10453C0000F012FB380000F009FB00F051FD0128DF
:10454C0002D9834B5C661C664346FB702037012CFA
:10455C0001D00124E0E7C02301A8DB007E4A0380E0
:10456C0002AB12CA12C3012100F074FB8022784BFB
:10457C0092021A6580235B011D420ED18023DB0160
:10458C001D4221D180231B021D422CD1AE4200D0F2
:10459C00C0E104B080BCB846F0BD00241E435F4BA4
:1045AC001C60FFF7A7FE80236A465B0093801472A1
:1045BC00012101A800F04EFB8022654B12031A6505
:1045CC008023DB011D42DDD01E43802301A8DB00CC
:1045DC000380012100F03EFB10225D4B1A65802305
:1045EC001B021D42D2D01E43A02301A8DB00038076
:1045FC00012100F02FFB8022554B12011A65C5E7F3
:10460C00FFF7ACFE26007EE7544B444A1C66536E03
:10461C002340A342FBD187E73833E65C002E00D160
:10462C0005E70233E25C002A00D100E720000022FB
:10463C002030E25400F0B8FAF9E6B833E75C002F0A
:10464C0000D1FEE60233E25C002A00D022E13E00FB
:10465C00F7E67833E75C002F00D1EDE60233E25C3D
:10466C00002A00D00EE13E00E6E6B933FF33E75CEA
:10467C00002F00D1FCE60233E25C002A00D0F8E007
:10468C003E00F5E67933FF33E75C002F00D1E9E615
:10469C000233E25C002A00D0E2E03E00E2E639336D
:1046AC00FF33E75C002F00D1D6E60233E25C002A30
:1046BC0000D0CCE03E00CFE6F833E75C002F00D111
:1046CC00C4E60233E25C002A00D0B8E03E00BDE64E
:1046DC00234BE75C002F00D1EEE60233E25C002AAC
:1046EC0000D010E1174BE35C022B00D18BE0164B92
:1046FC00E35C022B00D0F4E61A4BE35C002B00D0F9
:10470C0090E0EEE6184BE75C002F00D1CFE60233C9
:10471C00E25C002A00D0EEE03E00C8E6000011503A
:10472C0000400540B0190020A81900203B020000F1
:10473C007B020000BB020000FB0200003B030000F8
:10474C007B030000BB030000FB030000211E0020C4
:10475C0000301150100002000000105000201150C9
:10476C007A030000FA0300003A0300006C4BE75C8C
:10477C00002F00D196E60233E25C002A00D0B2E0B2
:10478C003E008FE6674BE75C002F00D185E60233D5
:10479C00E25C002A00D09EE03E007EE6624BE75CC5
:1047AC00002F00D174E60233E25C002A00D08AE0CC
:1047BC003E006DE65D4BE75C002F00D163E60233F3
:1047CC00E25C002A77D13E005DE6F933FF33E75C0B
:1047DC00002F00D152E60233E25C002A62D13E0087
:1047EC004CE6534BE35C002B00D16AE6EF239B00B5
:1047FC00E25C002A00D17AE70022E2541C3BE0186C
:10480C0000F0D2F973E74A4BE35C002BEED1494B35
:10481C00E35C022B00D064E63E00474BE35C002BCC
:10482C0000D153E6FF239B00E25C002A00D158E63E
:10483C000022E2541C3BE01800F0B6F951E62000CF
:10484C000022E030E2543E0000F0AEF9FEE520001C
:10485C0000222130FF30E2543E0000F0A5F9FBE5C8
:10486C00200000226130FF30E2543E0000F09CF941
:10487C00F8E520000022A130FF30E2543E0000F0A9
:10488C0093F9F5E5200000226030E2543E0000F080
:10489C008BF9D1E520000022A030E2543E0000F05C
:1048AC0083F9CEE520000022E130FF30E2543E00D7
:1048BC0000F07AF9E2E50022E2541C3BE01800F02B
:1048CC0073F93E00DFE50022E2541C3BE01800F0D7
:1048DC006BF93E00DCE50022E2541C3BE01800F0D2
:1048EC0063F93E00D9E50022E2541C3BE01800F0CD
:1048FC005BF93E00D6E50022E2541C3BE01800F0C8
:10490C0053F93E00D3E50022E2541C3BE01800F0C2
:10491C004BF9E7E631000948694000F069FBC046F5
:10492C00FA020000BA0200007A0200003A0200000B
:10493C00BA030000FB030000FA030000883F0010DC
:10494C00F0B5D6464F464646C0B50200838A008B6A
:10495C008A46041C984200D91C1CD5788026280055
:10496C00471EB841A4B2F60026434003304301264B
:10497C0075401B1BD57055789BB29382002D37D197
:10498C005146D6688D01611E761988461569002C32
:10499C0029D006293AD933002B439B0736D16B1CFF
:1049AC00F31A022B32D9231F9B0801339C46002794
:1049BC000023E9580137F1500433BC45F9D863465C
:1049CC0041469B00ED18F618CF1A9C4209D02B7863
:1049DC003370002F05D06B787370012F01D0AB783A
:1049EC00B3701569938A2D19156180221202104338
:1049FC00002B02D18023DB0118435346002B00D03F
:104A0C000004E0BCBA46B146A846F0BD0023EF5CFA
:104A1C00F75401339C42FAD11569938AE3E7C046F7
:104A2C008368F0B51B680500002900D01B0C9B05A2
:104A3C00980D6B78002B08D1EB8AC318EB822B8B6B
:104A4C00834201D90023AB82F0BDEB688901461E7D
:104A5C00B4462A695C18002827D0062E2BD90131C0
:104A6C005B18D31A022B26D9130023439B0722D1A0
:104A7C0000230021061FB6080136E7580131D75034
:104A8C0004338E42F9D86346B600A41992199F1BC1
:104A9C00B04209D023781370002F05D0637853707F
:104AAC00012F01D0A37893702A69EB8A1218C318CE
:104ABC00EB822A61C3E70023E15CD15401339842B5
:104ACC00FAD12A69F1E7C04610B5040083680021C9
:104ADC001B68FFF7A5FF63681B685B0002D5238B7F
:104AEC00834200D010BD01212000FFF799FFF9E7A8
:104AFC00084A0300126C0020920703D49A78D2095A
:104B0C00012A00D07047D87E023843425841C0B2C7
:104B1C00F8E7C0460000115010B5FFF7E9FF002878
:104B2C000CD00749074B8C46074A9B6A12686344B2
:104B3C009B1A0020C6229A424041C0B210BDC0460A
:104B4C00E0FCFFFF00400540A819002000238376FD
:104B5C00436103617047C04610B58368002901D0DA
:104B6C001C682140002A12D08024E4001143224208
:104B7C000DD01A6822420CD1084A0A401A60084A21
:104B8C00126C920703D40C23033BFDD2836819608B
:104B9C0010BD8178034800F02BFAC046FFFBFFFFE5
:104BAC00000011509C3F0010436870B50021802517
:104BBC001E680400FFF7C4FE134B6D011B6C05430C
:104BCC009B070FD5A3785B060FD0104B1E4080239C
:104BDC009B05334362680021136020002A00FFF715
:104BEC00BBFF70BDA378DB09EFD0A38A002BECD000
:104BFC0001212000FFF7A4FEA023054ADB0532406B
:104C0C0005431343E6E7C04600001150FFFFFFAF1A
:104C1C00FFFFFFDF70B5857E0400002D14D0FFF779
:104C2C0053FFA38A002B01D1280070BD2000FFF791
:104C3C0073FF002803D0012300252377F4E720001D
:104C4C00FFF7B2FF0025EFE78178014800F0D0F9BB
:104C5C00BC3F0010F0B5CE46474680B54378050002
:104C6C000E0085B0062B08D86B4A9B00D3589F4684
:104C7C006A4A13780133DBB21370694B1C686269A2
:104C8C00EFF3108172B61368002BFCD0BFF35F8F6B
:104C9C00A1612000290000F0CBF96269A369BFF380
:104CAC005F8F0021116083F31088002804D105B0B8
:104CBC00C0BCB946B046F0BD32006978287800F027
:104CCC009FF9F4E70121574B1A788A431A701A7826
:104CDC0001318A431A7000225A701A7802318A43C1
:104CEC001A70CAE7504B514F9946514B00249846C5
:104CFC003A7810E043461B6861015B18002B06D024
:104D0C00DB69002B03D06968287898473A7801341E
:104D1C00E4B2944217D8A242ECD8A31A5B014B44DC
:104D2C00EEE7404B1A78D207C1D504211A780A4312
:104D3C001A70A2E73B4B1A78D207B8D504211A781F
:104D4C008A431A7099E7374F3B785B072BD50422BF
:104D5C003B78002193433B706B460632981D00F064
:104D6C002FF92B7801AC2370052363702C4B1B6837
:104D7C0098465A69EFF3108172B61368002BFCD079
:104D8C00BFF35F8F434640469961210000F050F914
:104D9C0043465A699B69BFF35F8F0021116083F30F
:104DAC001088002831D1FB78DB0700D47FE76B46F5
:104DBC000A220021981D00F003F92B7801AC237016
:104DCC00032363706B686360154B1D686A69EFF3AE
:104DDC00108172B61368002BFCD0BFF35F8FA961F2
:104DEC002800210000F024F96A69AB69BFF35F8FDA
:104DFC000021116083F31088002800D157E732009E
:104E0C006178207800F0FCF851E732006178207866
:104E1C0000F0F6F8C7E7C0462C410010221E002017
:104E2C005C1600200416002048410010201E0020B3
:104E3C006015002010B5084C2378002B0AD1802374
:104E4C00064807495B051A68C25004338B42FAD1F5
:104E5C000123237010BDC046231E00206C180010C7
:104E6C000001001010B5014B984710BD6D180020C3
:104E7C00064B5A6802609A684260DA6882601A6966
:104E8C00C2605A6902619B6943617047000002402D
:104E9C000268064B5A6042689A608268DA60C2689F
:104EAC001A6102695A6142699A61704700000240B6
:104EBC00034B1A68C0239B009343024A136070474C
:104ECC000C8001400C900140054B1A6880239B001C
:104EDC005340C02292001340024A13607047C046F0
:104EEC000C8001400C9001401423F0B5D6464F467F
:104EFC0046469A46C0B581461888043386B0984613
:104F0C000E001B882949140098475346070018883F
:104F1C00434627491B889847534605001888434643
:104F2C0024491B8898478046FFF784FF6846FFF7A3
:104F3C009FFFB847A847FFF7C7FF221E20D0C0210C
:104F4C0008270220490511E0002C14D0131B0D2B4F
:104F5C0024D9002D0AD02300002A05D00B6E013A6B
:104F6C003370130001362343002B09D03D008B6AAC
:104F7C001D401842E8D1002DEDD123001343F5D18B
:104F8C00FFF796FFC047FFF76DFF6846FFF780FFFE
:104F9C0006B0E0BCBA46B146A846F0BD4B461B78FD
:104FAC00013C0B6601239C46E144E4E749460000C2
:104FBC0045580000464300007047C0460000000002
:104FCC0001B40248844601BC604700BFCD1B0010F1
:104FDC0001B40248844601BC604700BF8511001033
:104FEC0001B40248844601BC604700BF2504001090
:104FFC0001B40248844601BC604700BF3104001074
:10500C0001B40248844601BC604700BF0D24001067
:10501C0001B40248844601BC604700BFA1120010D5
:10502C0001B40248844601BC604700BFF91A001065
:10503C0001B40248844601BC604700BFC939001066
:10504C001000000000000000000001000000000043
:10505C000000000000000200000000000000000042
:10506C000000030000000000000000000000FF0032
:10507C000000000001B5486801318E4600477046BB
:10508C0009380149884701BDFD09001000000000E6
:10509C000000000000000000000000000000000004
:1050AC003010002000000000000000000000000094
:1050BC00503300004C3300005433000052330000D6
:1050CC004D5300004D4300005334000043340000A6
:1050DC00111F0010152000105D1F0010292000105A
:1050EC0000000000000100006016002010000C0001
:1050FC0000000000000000000000000000000000A4
:10510C0000000000FF000000000000000000000094
:04000005100001E9FD
:00000001FF
